{"contracts/BaseReputationSBT.sol":{"BaseReputationSBT":{"abi":[{"inputs":[{"internalType":"address payable","name":"_treasury","type":"address"},{"internalType":"address","name":"_attester","type":"address"}],"stateMutability":"nonpayable","type":"constructor"},{"inputs":[],"name":"ECDSAInvalidSignature","type":"error"},{"inputs":[{"internalType":"uint256","name":"length","type":"uint256"}],"name":"ECDSAInvalidSignatureLength","type":"error"},{"inputs":[{"internalType":"bytes32","name":"s","type":"bytes32"}],"name":"ECDSAInvalidSignatureS","type":"error"},{"inputs":[{"internalType":"address","name":"sender","type":"address"},{"internalType":"uint256","name":"tokenId","type":"uint256"},{"internalType":"address","name":"owner","type":"address"}],"name":"ERC721IncorrectOwner","type":"error"},{"inputs":[{"internalType":"address","name":"operator","type":"address"},{"internalType":"uint256","name":"tokenId","type":"uint256"}],"name":"ERC721InsufficientApproval","type":"error"},{"inputs":[{"internalType":"address","name":"approver","type":"address"}],"name":"ERC721InvalidApprover","type":"error"},{"inputs":[{"internalType":"address","name":"operator","type":"address"}],"name":"ERC721InvalidOperator","type":"error"},{"inputs":[{"internalType":"address","name":"owner","type":"address"}],"name":"ERC721InvalidOwner","type":"error"},{"inputs":[{"internalType":"address","name":"receiver","type":"address"}],"name":"ERC721InvalidReceiver","type":"error"},{"inputs":[{"internalType":"address","name":"sender","type":"address"}],"name":"ERC721InvalidSender","type":"error"},{"inputs":[{"internalType":"uint256","name":"tokenId","type":"uint256"}],"name":"ERC721NonexistentToken","type":"error"},{"inputs":[{"internalType":"address","name":"owner","type":"address"}],"name":"OwnableInvalidOwner","type":"error"},{"inputs":[{"internalType":"address","name":"account","type":"address"}],"name":"OwnableUnauthorizedAccount","type":"error"},{"anonymous":false,"inputs":[{"indexed":true,"internalType":"address","name":"owner","type":"address"},{"indexed":true,"internalType":"address","name":"approved","type":"address"},{"indexed":true,"internalType":"uint256","name":"tokenId","type":"uint256"}],"name":"Approval","type":"event"},{"anonymous":false,"inputs":[{"indexed":true,"internalType":"address","name":"owner","type":"address"},{"indexed":true,"internalType":"address","name":"operator","type":"address"},{"indexed":false,"internalType":"bool","name":"approved","type":"bool"}],"name":"ApprovalForAll","type":"event"},{"anonymous":false,"inputs":[{"indexed":true,"internalType":"address","name":"attester","type":"address"}],"name":"AttesterUpdated","type":"event"},{"anonymous":false,"inputs":[{"indexed":true,"internalType":"address","name":"previousOwner","type":"address"},{"indexed":true,"internalType":"address","name":"newOwner","type":"address"}],"name":"OwnershipTransferred","type":"event"},{"anonymous":false,"inputs":[{"indexed":true,"internalType":"uint256","name":"tokenId","type":"uint256"},{"indexed":true,"internalType":"address","name":"owner","type":"address"},{"indexed":true,"internalType":"address","name":"scoredWallet","type":"address"},{"indexed":false,"internalType":"uint256","name":"score","type":"uint256"},{"indexed":false,"internalType":"string","name":"category","type":"string"},{"indexed":false,"internalType":"bytes32","name":"scoreHash","type":"bytes32"},{"indexed":false,"internalType":"string","name":"version","type":"string"},{"indexed":false,"internalType":"uint256","name":"mintedAt","type":"uint256"}],"name":"ReputationMinted","type":"event"},{"anonymous":false,"inputs":[{"indexed":true,"internalType":"address","name":"from","type":"address"},{"indexed":true,"internalType":"address","name":"to","type":"address"},{"indexed":true,"internalType":"uint256","name":"tokenId","type":"uint256"}],"name":"Transfer","type":"event"},{"anonymous":false,"inputs":[{"indexed":true,"internalType":"address","name":"treasury","type":"address"}],"name":"TreasuryUpdated","type":"event"},{"inputs":[],"name":"MINT_PRICE","outputs":[{"internalType":"uint256","name":"","type":"uint256"}],"stateMutability":"view","type":"function"},{"inputs":[{"internalType":"address","name":"to","type":"address"},{"internalType":"uint256","name":"tokenId","type":"uint256"}],"name":"approve","outputs":[],"stateMutability":"nonpayable","type":"function"},{"inputs":[],"name":"attester","outputs":[{"internalType":"address","name":"","type":"address"}],"stateMutability":"view","type":"function"},{"inputs":[{"internalType":"address","name":"owner","type":"address"}],"name":"balanceOf","outputs":[{"internalType":"uint256","name":"","type":"uint256"}],"stateMutability":"view","type":"function"},{"inputs":[{"internalType":"uint256","name":"tokenId","type":"uint256"}],"name":"getApproved","outputs":[{"internalType":"address","name":"","type":"address"}],"stateMutability":"view","type":"function"},{"inputs":[{"internalType":"address","name":"owner","type":"address"},{"internalType":"address","name":"operator","type":"address"}],"name":"isApprovedForAll","outputs":[{"internalType":"bool","name":"","type":"bool"}],"stateMutability":"view","type":"function"},{"inputs":[{"internalType":"address","name":"","type":"address"}],"name":"latestTokenByWallet","outputs":[{"internalType":"uint256","name":"","type":"uint256"}],"stateMutability":"view","type":"function"},{"inputs":[{"internalType":"address","name":"scoredWallet","type":"address"},{"internalType":"uint256","name":"score","type":"uint256"},{"internalType":"string","name":"category","type":"string"},{"internalType":"bytes32","name":"scoreHash","type":"bytes32"},{"internalType":"string","name":"version","type":"string"},{"internalType":"uint256","name":"deadline","type":"uint256"},{"internalType":"bytes32","name":"nonce","type":"bytes32"},{"internalType":"bytes","name":"signature","type":"bytes"}],"name":"mintReputationScore","outputs":[],"stateMutability":"payable","type":"function"},{"inputs":[],"name":"name","outputs":[{"internalType":"string","name":"","type":"string"}],"stateMutability":"view","type":"function"},{"inputs":[],"name":"nextTokenId","outputs":[{"internalType":"uint256","name":"","type":"uint256"}],"stateMutability":"view","type":"function"},{"inputs":[],"name":"owner","outputs":[{"internalType":"address","name":"","type":"address"}],"stateMutability":"view","type":"function"},{"inputs":[{"internalType":"uint256","name":"tokenId","type":"uint256"}],"name":"ownerOf","outputs":[{"internalType":"address","name":"","type":"address"}],"stateMutability":"view","type":"function"},{"inputs":[],"name":"renounceOwnership","outputs":[],"stateMutability":"nonpayable","type":"function"},{"inputs":[{"internalType":"uint256","name":"","type":"uint256"}],"name":"reputations","outputs":[{"internalType":"address","name":"scoredWallet","type":"address"},{"internalType":"uint256","name":"score","type":"uint256"},{"internalType":"string","name":"category","type":"string"},{"internalType":"bytes32","name":"scoreHash","type":"bytes32"},{"internalType":"string","name":"version","type":"string"},{"internalType":"uint256","name":"mintedAt","type":"uint256"}],"stateMutability":"view","type":"function"},{"inputs":[{"internalType":"address","name":"from","type":"address"},{"internalType":"address","name":"to","type":"address"},{"internalType":"uint256","name":"tokenId","type":"uint256"}],"name":"safeTransferFrom","outputs":[],"stateMutability":"nonpayable","type":"function"},{"inputs":[{"internalType":"address","name":"from","type":"address"},{"internalType":"address","name":"to","type":"address"},{"internalType":"uint256","name":"tokenId","type":"uint256"},{"internalType":"bytes","name":"data","type":"bytes"}],"name":"safeTransferFrom","outputs":[],"stateMutability":"nonpayable","type":"function"},{"inputs":[{"internalType":"address","name":"operator","type":"address"},{"internalType":"bool","name":"approved","type":"bool"}],"name":"setApprovalForAll","outputs":[],"stateMutability":"nonpayable","type":"function"},{"inputs":[{"internalType":"address","name":"_attester","type":"address"}],"name":"setAttester","outputs":[],"stateMutability":"nonpayable","type":"function"},{"inputs":[{"internalType":"address payable","name":"_treasury","type":"address"}],"name":"setTreasury","outputs":[],"stateMutability":"nonpayable","type":"function"},{"inputs":[{"internalType":"bytes4","name":"interfaceId","type":"bytes4"}],"name":"supportsInterface","outputs":[{"internalType":"bool","name":"","type":"bool"}],"stateMutability":"view","type":"function"},{"inputs":[],"name":"symbol","outputs":[{"internalType":"string","name":"","type":"string"}],"stateMutability":"view","type":"function"},{"inputs":[{"internalType":"uint256","name":"tokenId","type":"uint256"}],"name":"tokenURI","outputs":[{"internalType":"string","name":"","type":"string"}],"stateMutability":"view","type":"function"},{"inputs":[{"internalType":"address","name":"from","type":"address"},{"internalType":"address","name":"to","type":"address"},{"internalType":"uint256","name":"tokenId","type":"uint256"}],"name":"transferFrom","outputs":[],"stateMutability":"nonpayable","type":"function"},{"inputs":[{"internalType":"address","name":"newOwner","type":"address"}],"name":"transferOwnership","outputs":[],"stateMutability":"nonpayable","type":"function"},{"inputs":[],"name":"treasury","outputs":[{"internalType":"address payable","name":"","type":"address"}],"stateMutability":"view","type":"function"},{"inputs":[{"internalType":"bytes32","name":"","type":"bytes32"}],"name":"usedNonces","outputs":[{"internalType":"bool","name":"","type":"bool"}],"stateMutability":"view","type":"function"}],"evm":{"bytecode":{"linkReferences":{},"object":"6080346200042b5762002ab690601f1990601f906001600160401b0390388590038381018516820190838211838310176200034d57808391604098899485528339810103126200042b5780516001600160a01b038082169390918490036200042b57602080930151958287168097036200042b576200007d6200042f565b95601587527f426173652052657075746174696f6e2053636f7265000000000000000000000085880152620000b16200042f565b600381526242525360e81b8682015287518481116200034d575f546001998a82811c9216801562000420575b898310146200032e578185849311620003cd575b5088908583116001146200036d575f9262000361575b50505f19600383901b1c191690891b175f555b80519384116200034d578754928884811c9416801562000342575b878510146200032e578383869511620002d7575b50869284116001146200027657505f926200026a575b50505f19600383901b1c191690851b1784555b331562000253576006549360018060a01b03199433868216176006558751923391167f8be0079c531659141344cd1fd0a4f28419497f9722a3daafe3b4186f6b6457e05f80a360095582156200022057508315620001ea57508160085416176008556007541617600755516126669081620004508239f35b60649085519062461bcd60e51b82526004820152601060248201526f24b73b30b634b21030ba3a32b9ba32b960811b6044820152fd5b60649162461bcd60e51b82526004820152601060248201526f496e76616c696420747265617375727960801b6044820152fd5b8551631e4fbdf760e01b81525f6004820152602490fd5b015190505f806200015f565b88949291921691845f52865f20925f5b88828210620002c05750508411620002a7575b505050811b01845562000172565b01515f1960f88460031b161c191690555f808062000299565b8385015186558b9790950194938401930162000286565b9091929350885f52865f208480870160051c82019289881062000324575b9187968c92969594930160051c01915b8281106200031557505062000149565b5f81558796508b910162000305565b92508192620002f5565b634e487b7160e01b5f52602260045260245ffd5b93607f169362000135565b634e487b7160e01b5f52604160045260245ffd5b015190505f8062000107565b90868c9416915f80528a5f20925f5b8c828210620003b657505084116200039d575b505050811b015f556200011a565b01515f1960f88460031b161c191690555f80806200038f565b8385015186558f979095019493840193016200037c565b9091505f8052885f208580850160051c8201928b861062000416575b918d91869594930160051c01915b82811062000407575050620000f1565b5f81558594508d9101620003f7565b92508192620003e9565b91607f1691620000dd565b5f80fd5b60408051919082016001600160401b038111838210176200034d5760405256fe6080806040526004361015610012575f80fd5b5f3560e01c90816301ffc9a714611b845750806306fdde0314611add578063081812fc14611aa1578063095ea7b3146119c057806323b872dd146119a957806342842e0e1461198257806347b0c3b31461195a57806361d027b3146119325780636352211e1461190257806365320da2146118ca57806368016a6a1461103557806370a0823114610fdf578063715018a614610f8457806372fa9b8514610eef57806375794a3c14610ed25780638da5cb5b14610eaa57806395d89b4114610de05780639daf85ab14610d40578063a22cb46514610c81578063b88d4fde14610c20578063c002d23d14610c00578063c87b56dd146102ea578063e985e9c514610298578063f0f44260146101f4578063f2fde38b1461016d5763feb617241461013a575f80fd5b34610169576020366003190112610169576004355f52600c602052602060ff60405f2054166040519015158152f35b5f80fd5b3461016957602036600319011261016957610186611c35565b61018e6121c2565b6001600160a01b039081169081156101dc57600654826001600160601b0360a01b821617600655167f8be0079c531659141344cd1fd0a4f28419497f9722a3daafe3b4186f6b6457e05f80a3005b604051631e4fbdf760e01b81525f6004820152602490fd5b34610169576020366003190112610169576004356001600160a01b03811690819003610169576102226121c2565b801561026057600880546001600160a01b031916821790557f7dae230f18360d76a040c81f050aa14eb9d6dc7901b20fc5d855e2a20fe814d15f80a2005b60405162461bcd60e51b815260206004820152601060248201526f496e76616c696420747265617375727960801b6044820152606490fd5b34610169576040366003190112610169576102b1611c35565b6102b9611c4b565b9060018060a01b038091165f52600560205260405f2091165f52602052602060ff60405f2054166040519015158152f35b3461016957602080600319360112610169576004359061030982612188565b50815f52600a815260405f20916040519261032384611cfb565b80546001600160a01b03908116855260018201548486019081529094909161034d60028201611d52565b604083019081526003820154606084015261036a60048301611d52565b91608084019283526005015460a084015283519681519761038a906121ee565b604080517f3c73766720786d6c6e733d22687474703a2f2f7777772e77332e6f72672f32308a8201527f30302f737667222077696474683d223132303022206865696768743d22313230918101919091527f30222076696577426f783d2230203020313230302031323030223e000000000060608201527f3c726563742077696474683d223132303022206865696768743d223132303022607b8201527f2072783d223830222066696c6c3d2223303631313166222f3e00000000000000609b8201527f3c636972636c652063783d22363030222063793d223431302220723d2232323060b48201527f222066696c6c3d222330303532666622206f7061636974793d22302e39222f3e60d48201527f3c7465787420783d223630302220793d223236302220746578742d616e63686f60f4808301919091527f723d226d6964646c65222066696c6c3d2277686974652220666f6e742d73697a61011483018190527f653d2236342220666f6e742d66616d696c793d22417269616c2220666f6e742d6101348401527f7765696768743d22373030223e426173652052657075746174696f6e2053636f6101548401526839329e17ba32bc3a1f60b91b6101748401527f3c7465787420783d223630302220793d223435352220746578742d616e63686f61017d84015261019d8301527f653d223139302220666f6e742d66616d696c793d22417269616c2220666f6e746101bd8301526d16bbb2b4b3b43a1e911c9818111f60911b6101dd8301528251909a91928392916101eb918c91906105da908290858801908501611bef565b8401661e17ba32bc3a1f60c91b80938201526101f281017f3c7465787420783d223630302220793d223732302220746578742d616e63686f905261021281017f723d226d6964646c65222066696c6c3d22233963633266662220666f6e742d73905261023281017f697a653d2237302220666f6e742d66616d696c793d22417269616c2220666f6e90526e3a16bbb2b4b3b43a1e911b9818111f60891b610252820152610261938051809386840192019161069492611bef565b01918201527f3c7465787420783d223630302220793d223835302220746578742d616e63686f6102688201527f723d226d6964646c65222066696c6c3d222366666666666622206f70616369746102888201527f793d22302e36352220666f6e742d73697a653d2234322220666f6e742d66616d6102a88201527f696c793d22417269616c223e536f756c626f756e64202d204e6f6e2d7472616e6102c88201526e39b332b930b136329e17ba32bc3a1f60891b6102e8820152651e17b9bb339f60d11b6102f7820152036102dd81018252610774906102fd0182611d31565b61077d90612423565b95610787906121ee565b9451610792906121ee565b9151925193511660405197606089018981106001600160401b03821117610bec57604052602a8952604036898b0137885115610bd8576030888a0153885160011015610bd857607860218a01535f5b60148110610ae3575087610a7988610a746101618a8a8f8b8b6040519788957f7b226e616d65223a22426173652052657075746174696f6e2053636f726520238c8801526108398c825192839160408b019101611bef565b86017f222c226465736372697074696f6e223a22536f756c626f756e64206f6e63686160408201527f696e2072657075746174696f6e2073636f726520666f7220426173652061637460608201527f69766974792e204e6f6e2d7472616e7366657261626c652e222c00000000000060808201527f22696d616765223a22646174613a696d6167652f7376672b786d6c3b62617365609a820152620d8d0b60ea1b60ba8201526108f38c835193849160bd85019101611bef565b0161088b60f21b60bd8201526d2261747472696275746573223a5b60901b60bf8201527f7b2274726169745f74797065223a2253636f7265222c2276616c7565223a000060cd82015261094f825180938d60eb85019101611bef565b0190611f4b60f21b60eb8301527f7b2274726169745f74797065223a2243617465676f7279222c2276616c75652260ed830152611d1160f11b61010d83015261010f916109a4825180938d8685019101611bef565b019262089f4b60ea1b80928501527f7b2274726169745f74797065223a2256657273696f6e222c2276616c7565223a610112850152601160f91b610132850152610133936109fa825180938d8885019101611bef565b01928301527f7b2274726169745f74797065223a2253636f7265642057616c6c6574222c22766101368301526630b63ab2911d1160c91b61015683015261015d91610a4d825180938b8685019101611bef565b019061227d60f01b90820152615d7d60f01b61015f82015203610141810184520182611d31565b612423565b90610acb603d60405180947f646174613a6170706c69636174696f6e2f6a736f6e3b6261736536342c00000085830152610abb81518092878686019101611bef565b810103601d810185520183611d31565b610adf604051928284938452830190611c10565b0390f35b6013818103908111610bb057600381901b906001600160fd1b03811603610bb05760ff90818111610bb0576001811b15610bc45784901c908060f083168184160311610bb057610b3a82851b600f60f81b16612562565b916001600160ff1b0384168403610bb0578360011b600201600211610bb057610b8a925f1a610b706002600187901b018f612355565b5360f0811691160360f81b6001600160f81b031916612562565b908060011b60030180600311610bb057610ba96001935f1a918d612355565b53016107e1565b634e487b7160e01b5f52601160045260245ffd5b634e487b7160e01b5f52601260045260245ffd5b634e487b7160e01b5f52603260045260245ffd5b634e487b7160e01b5f52604160045260245ffd5b34610169575f36600319011261016957602060405165b5e620f480008152f35b3461016957608036600319011261016957610c39611c35565b610c41611c4b565b606435916001600160401b038311610169573660238401121561016957610c75610c7f933690602481600401359101611e0f565b916044359161206a565b005b3461016957604036600319011261016957610c9a611c35565b60243590811515809203610169573315610d28576001600160a01b0316908115610d0f57335f52600560205260405f20825f5260205260405f2060ff1981541660ff83161790556040519081527f17307eab39ab6107e8899845ad3d59bd9653f200f220920489ca2b5937696c3160203392a3005b604051630b61174360e31b815260048101839052602490fd5b60405163a9fbf51f60e01b81525f6004820152602490fd5b3461016957602036600319011261016957610d59611c35565b610d616121c2565b6001600160a01b03168015610da857600780546001600160a01b031916821790557f2d685970da1fe08d9d7ace6f5a982ede39c817eb28d1ac4935c913c4866248ca5f80a2005b60405162461bcd60e51b815260206004820152601060248201526f24b73b30b634b21030ba3a32b9ba32b960811b6044820152606490fd5b34610169575f366003190112610169576040515f60018260015492610e0484611cc3565b92838352602094856001821691825f14610e8a575050600114610e2f575b50610acb92500383611d31565b84915060015f527fb10e2d527612073b26eecdfd717e6a320cf44b4afac2b0732d9fcbe2b7fa0cf6905f915b858310610e72575050610acb935082010185610e22565b80548389018501528794508693909201918101610e5b565b60ff191685820152610acb95151560051b8501019250879150610e229050565b34610169575f366003190112610169576006546040516001600160a01b039091168152602090f35b34610169575f366003190112610169576020600954604051908152f35b34610169576020366003190112610169576004355f52600a60205260405f2060018060a01b03815416600182015491610f7a610f2d60028301611d52565b91600381015490610f676005610f4560048401611d52565b920154946040519788978852602088015260c0604088015260c0870190611c10565b9160608601528482036080860152611c10565b9060a08301520390f35b34610169575f36600319011261016957610f9c6121c2565b600680546001600160a01b031981169091555f906001600160a01b03167f8be0079c531659141344cd1fd0a4f28419497f9722a3daafe3b4186f6b6457e08280a3005b34610169576020366003190112610169576001600160a01b03611000611c35565b16801561101d575f526003602052602060405f2054604051908152f35b6040516322718ad960e21b81525f6004820152602490fd5b6101003660031901126101695761104a611c35565b6044356001600160401b03811161016957611069903690600401611c96565b91906084356001600160401b0381116101695761108a903690600401611c96565b909160e4356001600160401b038111610169576110ab903690600401611c96565b906001600160a01b0386161561188d5786151580611882575b1561184a5765b5e620f48000341061180e5760a43542116117d5576103e8602435116117a05760c4355f52600c60205260ff60405f2054166117665760c4355f52600c60205260405f20600160ff19825416179055611124368885611e0f565b6020815191012091611137368688611e0f565b602081519101206040519330602086015246604086015233606086015260018060a01b038916608086015260243560a086015260c085015260643560e085015261010084015260a43561012084015261014060c435818501528352826101608101106001600160401b0361016085011117610bec576111f86111fe92846101606112079601604052602081519101207f19457468657265756d205369676e6564204d6573736167653a0a3332000000005f52601c52603c5f20923691611e0f565b90612366565b909291926123a0565b6007546001600160a01b0390811691160361172d57600954925f198414610bb057600184016009553315611715575f848152600260205260409020546001600160a01b031615801561170e575b156116d7575f848152600260205260409020546001600160a01b0316801515908590826116a4575b335f52600360205260405f2060018154019055815f52600260205260405f20336001600160601b0360a01b82541617905533907fddf252ad1be2c89b69c2b068fc378daa952ba7f163c4a11628f55a4df523b3ef5f80a461168c576040516112e381611cfb565b6001600160a01b03861681526024356020820190815290611305368986611e0f565b60408201908152606435606083015261131f368786611e0f565b60808301524260a08301525f878152600a60205260409020825181546001600160a01b0319166001600160a01b039190911617815592516001840155518051906001600160401b038211610bec57819061137c6002860154611cc3565b601f811161163c575b50602090601f83116001146115ce575f926115c3575b50508160011b915f199060031b1c19161760028301555b6060810151600383015560808101518051906001600160401b038211610bec576113df6004850154611cc3565b601f811161157f575b50602090601f831160011461150e5791806005949260a0945f92611503575b50508160011b915f199060031b1c19161760048501555b015191015560018060a01b0385165f52600b6020528360405f20555f8080803460018060a01b03600854165af161145361201b565b50156114cd577fee2f5472603cc60e134a955a74778a3fc39f1d10d3c78cc2f4bea2a0a5f8ac349261149c6114b293604051986024358a5260a060208b015260a08a019161204a565b916064356040890152878303606089015261204a565b4260808601526001600160a01b0390931693339381900390a4005b60405162461bcd60e51b815260206004820152600e60248201526d14185e5b595b9d0819985a5b195960921b6044820152606490fd5b015190508c80611407565b90600485015f5260205f20915f5b601f19851681106115675750926005949260019260a09583601f1981161061154f575b505050811b01600485015561141e565b01515f1960f88460031b161c191690558c808061153f565b9192602060018192868501518155019401920161151c565b600485015f5260205f20601f840160051c8101602085106115bc575b601f830160051c820181106115b15750506113e8565b5f815560010161159b565b508061159b565b015190508a8061139b565b9250600285015f5260205f20905f935b601f1984168510611621576001945083601f19811610611609575b505050811b0160028301556113b2565b01515f1960f88460031b161c191690558a80806115f9565b818101518355602094850194600190930192909101906115de565b909150600285015f5260205f20601f840160051c810160208510611685575b90849392915b601f830160051c82018110611677575050611385565b5f8155859450600101611661565b508061165b565b6040516339e3563760e11b81525f6004820152602490fd5b5f82815260046020526040902080546001600160a01b0319169055805f52600360205260405f205f19815401905561127c565b60405162461bcd60e51b815260206004820152600f60248201526e29b7bab63137bab732103a37b5b2b760891b6044820152606490fd5b505f611254565b604051633250574960e11b81525f6004820152602490fd5b60405162461bcd60e51b8152602060048201526011602482015270496e76616c6964207369676e617475726560781b6044820152606490fd5b60405162461bcd60e51b8152602060048201526012602482015271139bdb98d948185b1c9958591e481d5cd95960721b6044820152606490fd5b60405162461bcd60e51b815260206004820152600d60248201526c496e76616c69642073636f726560981b6044820152606490fd5b60405162461bcd60e51b815260206004820152601160248201527014da59db985d1d5c9948195e1c1a5c9959607a1b6044820152606490fd5b60405162461bcd60e51b8152602060048201526014602482015273125b9cdd59999a58da595b9d081c185e5b595b9d60621b6044820152606490fd5b60405162461bcd60e51b815260206004820152601060248201526f496e76616c69642063617465676f727960801b6044820152606490fd5b5060288711156110c4565b60405162461bcd60e51b8152602060048201526015602482015274125b9d985b1a59081cd8dbdc9959081dd85b1b195d605a1b6044820152606490fd5b34610169576020366003190112610169576001600160a01b036118eb611c35565b165f52600b602052602060405f2054604051908152f35b34610169576020366003190112610169576020611920600435612188565b6040516001600160a01b039091168152f35b34610169575f366003190112610169576008546040516001600160a01b039091168152602090f35b34610169575f366003190112610169576007546040516001600160a01b039091168152602090f35b3461016957610c7f61199336611c61565b90604051926119a184611d16565b5f845261206a565b3461016957610c7f6119ba36611c61565b91611e45565b34610169576040366003190112610169576119d9611c35565b6024356119e581612188565b33151580611a8e575b80611a65575b611a4d576001600160a01b039283169282918491167f8c5be1e5ebec7d5bd14f71427d1e84f3dd0314c0f7b2291e5b200ac8c7c3b9255f80a45f90815260046020526040902080546001600160a01b0319169091179055005b60405163a9fbf51f60e01b8152336004820152602490fd5b5060018060a01b0381165f52600560205260405f20335f5260205260ff60405f205416156119f4565b506001600160a01b0381163314156119ee565b3461016957602036600319011261016957600435611abe81612188565b505f526004602052602060018060a01b0360405f205416604051908152f35b34610169575f366003190112610169576040515f80549082611afe83611cc3565b91828252602093600190856001821691825f14610e8a575050600114611b2b5750610acb92500383611d31565b5f808052859250907f290decd9548b62a8d60345a988386fc84ba6bc95484008f6362f93160ef3e5635b858310611b6c575050610acb935082010185610e22565b80548389018501528794508693909201918101611b55565b34610169576020366003190112610169576004359063ffffffff60e01b8216809203610169576020916380ac58cd60e01b8114908115611bde575b8115611bcd575b5015158152f35b6301ffc9a760e01b14905083611bc6565b635b5e139f60e01b81149150611bbf565b5f5b838110611c005750505f910152565b8181015183820152602001611bf1565b90602091611c2981518092818552858086019101611bef565b601f01601f1916010190565b600435906001600160a01b038216820361016957565b602435906001600160a01b038216820361016957565b6060906003190112610169576001600160a01b0390600435828116810361016957916024359081168103610169579060443590565b9181601f84011215610169578235916001600160401b038311610169576020838186019501011161016957565b90600182811c92168015611cf1575b6020831014611cdd57565b634e487b7160e01b5f52602260045260245ffd5b91607f1691611cd2565b60c081019081106001600160401b03821117610bec57604052565b602081019081106001600160401b03821117610bec57604052565b90601f801991011681019081106001600160401b03821117610bec57604052565b9060405191825f8254611d6481611cc3565b908184526020946001916001811690815f14611dd25750600114611d94575b505050611d9292500383611d31565b565b5f90815285812095935091905b818310611dba575050611d9293508201015f8080611d83565b85548884018501529485019487945091830191611da1565b92505050611d9294925060ff191682840152151560051b8201015f8080611d83565b6001600160401b038111610bec57601f01601f191660200190565b929192611e1b82611df4565b91611e296040519384611d31565b829481845281830111610169578281602093845f960137010152565b6001600160a01b03918216929091831561171557815f526020926002845260409482865f205416158015612014575b15611fde578390815f526002865283875f2054169533151580611f4c575b5060029087611f1b575b825f5260038152885f2060018154019055835f5252865f20816001600160601b0360a01b825416179055857fddf252ad1be2c89b69c2b068fc378daa952ba7f163c4a11628f55a4df523b3ef5f80a41692838303611efa5750505050565b6064945051926364283d7b60e01b8452600484015260248301526044820152fd5b5f84815260046020526040812080546001600160a01b03191690558881526003825289902080545f19019055611e9c565b9192509080611f9d575b15611f64579084915f611e92565b868587611f81576024915190637e27328960e01b82526004820152fd5b604491519063177e802f60e01b82523360048301526024820152fd5b503386148015611fc2575b80611f565750845f52600481523384885f20541614611f56565b50855f5260058152865f20335f52815260ff875f205416611fa8565b855162461bcd60e51b815260048101869052600f60248201526e29b7bab63137bab732103a37b5b2b760891b6044820152606490fd5b505f611e74565b3d15612045573d9061202c82611df4565b9161203a6040519384611d31565b82523d5f602084013e565b606090565b908060209392818452848401375f828201840152601f01601f1916010190565b91929092612079818585611e45565b833b612086575b50505050565b60209060018060a01b03809516946120cd6040519485938493630a85bd0160e11b988986523360048701521660248501526044840152608060648401526084830190611c10565b03815f875af15f9181612143575b5061211257826120e961201b565b805191908261210b57604051633250574960e11b815260048101839052602490fd5b6020915001fd5b6001600160e01b0319160361212b57505f808080612080565b60249060405190633250574960e11b82526004820152fd5b9091506020813d602011612180575b8161215f60209383611d31565b8101031261016957516001600160e01b03198116810361016957905f6120db565b3d9150612152565b5f818152600260205260409020546001600160a01b03169081156121aa575090565b60249060405190637e27328960e01b82526004820152fd5b6006546001600160a01b031633036121d657565b60405163118cdaa760e01b8152336004820152602490fd5b805f917a184f03e93ff9f4daa797ed6e38ed64bf6a1f01000000000000000080821015612347575b506d04ee2d6d415b85acef810000000080831015612338575b50662386f26fc1000080831015612329575b506305f5e1008083101561231a575b506127108083101561230b575b5060648210156122fb575b600a809210156122f1575b600190816021600186019561228787611df4565b966122956040519889611d31565b8088526122a4601f1991611df4565b01366020890137860101905b6122bc575b5050505090565b5f19019083906f181899199a1a9b1b9c1cb0b131b232b360811b8282061a8353049182156122ec579190826122b0565b6122b5565b9160010191612273565b9190606460029104910191612268565b6004919392049101915f61225d565b6008919392049101915f612250565b6010919392049101915f612241565b6020919392049101915f61222f565b60409350810491505f612216565b908151811015610bd8570160200190565b81519190604183036123965761238f9250602082015190606060408401519301515f1a906125a3565b9192909190565b50505f9160029190565b600481101561240f57806123b2575050565b600181036123cc5760405163f645eedf60e01b8152600490fd5b600281036123ed5760405163fce698f760e01b815260048101839052602490fd5b6003146123f75750565b602490604051906335e2f38360e21b82526004820152fd5b634e487b7160e01b5f52602160045260245ffd5b80511561254f578051916002808401809411610bb057600393849004600281901b91906001600160fe1b03811603610bb05793604051937f4142434445464748494a4b4c4d4e4f505152535455565758595a616263646566601f52603f917f6768696a6b6c6d6e6f707172737475767778797a303132333435363738392b2f603f5260208601928291835184019160208301998a51945f8c525b848110612513575050505050906003916020959697525106806001146124fe576002146124f1575b50808452830101604052565b603d905f1901535f6124e5565b50603d90815f1982015360011901535f6124e5565b836004919c95989c019b838d51818160121c165183538181600c1c16516001840153818160061c1651858401531651858201530196939a6124bd565b5060405161255c81611d16565b5f815290565b60f81c600a81106125885760570160ff8111610bb05760f81b6001600160f81b03191690565b60300160ff8111610bb05760f81b6001600160f81b03191690565b91907f7fffffffffffffffffffffffffffffff5d576e7357a4501ddfe92f46681b20a08411612625579160209360809260ff5f9560405194855216868401526040830152606082015282805260015afa1561261a575f516001600160a01b0381161561261057905f905f90565b505f906001905f90565b6040513d5f823e3d90fd5b5050505f916003919056fea2646970667358221220358bf434154ced5e4f984733eb5340db9fda6f67bed5049ba3f217416d8f12d164736f6c63430008180033","opcodes":"PUSH1 0x80 CALLVALUE PUSH3 0x42B JUMPI PUSH3 0x2AB6 SWAP1 PUSH1 0x1F NOT SWAP1 PUSH1 0x1F SWAP1 PUSH1 0x1 PUSH1 0x1 PUSH1 0x40 SHL SUB SWAP1 CODESIZE DUP6 SWAP1 SUB DUP4 DUP2 ADD DUP6 AND DUP3 ADD SWAP1 DUP4 DUP3 GT DUP4 DUP4 LT OR PUSH3 0x34D JUMPI DUP1 DUP4 SWAP2 PUSH1 0x40 SWAP9 DUP10 SWAP5 DUP6 MSTORE DUP4 CODECOPY DUP2 ADD SUB SLT PUSH3 0x42B JUMPI DUP1 MLOAD PUSH1 0x1 PUSH1 0x1 PUSH1 0xA0 SHL SUB DUP1 DUP3 AND SWAP4 SWAP1 SWAP2 DUP5 SWAP1 SUB PUSH3 0x42B JUMPI PUSH1 0x20 DUP1 SWAP4 ADD MLOAD SWAP6 DUP3 DUP8 AND DUP1 SWAP8 SUB PUSH3 0x42B JUMPI PUSH3 0x7D PUSH3 0x42F JUMP JUMPDEST SWAP6 PUSH1 0x15 DUP8 MSTORE PUSH32 0x426173652052657075746174696F6E2053636F72650000000000000000000000 DUP6 DUP9 ADD MSTORE PUSH3 0xB1 PUSH3 0x42F JUMP JUMPDEST PUSH1 0x3 DUP2 MSTORE PUSH3 0x425253 PUSH1 0xE8 SHL DUP7 DUP3 ADD MSTORE DUP8 MLOAD DUP5 DUP2 GT PUSH3 0x34D JUMPI PUSH0 SLOAD PUSH1 0x1 SWAP10 DUP11 DUP3 DUP2 SHR SWAP3 AND DUP1 ISZERO PUSH3 0x420 JUMPI JUMPDEST DUP10 DUP4 LT EQ PUSH3 0x32E JUMPI DUP2 DUP6 DUP5 SWAP4 GT PUSH3 0x3CD JUMPI JUMPDEST POP DUP9 SWAP1 DUP6 DUP4 GT PUSH1 0x1 EQ PUSH3 0x36D JUMPI PUSH0 SWAP3 PUSH3 0x361 JUMPI JUMPDEST POP POP PUSH0 NOT PUSH1 0x3 DUP4 SWAP1 SHL SHR NOT AND SWAP1 DUP10 SHL OR PUSH0 SSTORE JUMPDEST DUP1 MLOAD SWAP4 DUP5 GT PUSH3 0x34D JUMPI DUP8 SLOAD SWAP3 DUP9 DUP5 DUP2 SHR SWAP5 AND DUP1 ISZERO PUSH3 0x342 JUMPI JUMPDEST DUP8 DUP6 LT EQ PUSH3 0x32E JUMPI DUP4 DUP4 DUP7 SWAP6 GT PUSH3 0x2D7 JUMPI JUMPDEST POP DUP7 SWAP3 DUP5 GT PUSH1 0x1 EQ PUSH3 0x276 JUMPI POP PUSH0 SWAP3 PUSH3 0x26A JUMPI JUMPDEST POP POP PUSH0 NOT PUSH1 0x3 DUP4 SWAP1 SHL SHR NOT AND SWAP1 DUP6 SHL OR DUP5 SSTORE JUMPDEST CALLER ISZERO PUSH3 0x253 JUMPI PUSH1 0x6 SLOAD SWAP4 PUSH1 0x1 DUP1 PUSH1 0xA0 SHL SUB NOT SWAP5 CALLER DUP7 DUP3 AND OR PUSH1 0x6 SSTORE DUP8 MLOAD SWAP3 CALLER SWAP2 AND PUSH32 0x8BE0079C531659141344CD1FD0A4F28419497F9722A3DAAFE3B4186F6B6457E0 PUSH0 DUP1 LOG3 PUSH1 0x9 SSTORE DUP3 ISZERO PUSH3 0x220 JUMPI POP DUP4 ISZERO PUSH3 0x1EA JUMPI POP DUP2 PUSH1 0x8 SLOAD AND OR PUSH1 0x8 SSTORE PUSH1 0x7 SLOAD AND OR PUSH1 0x7 SSTORE MLOAD PUSH2 0x2666 SWAP1 DUP2 PUSH3 0x450 DUP3 CODECOPY RETURN JUMPDEST PUSH1 0x64 SWAP1 DUP6 MLOAD SWAP1 PUSH3 0x461BCD PUSH1 0xE5 SHL DUP3 MSTORE PUSH1 0x4 DUP3 ADD MSTORE PUSH1 0x10 PUSH1 0x24 DUP3 ADD MSTORE PUSH16 0x24B73B30B634B21030BA3A32B9BA32B9 PUSH1 0x81 SHL PUSH1 0x44 DUP3 ADD MSTORE REVERT JUMPDEST PUSH1 0x64 SWAP2 PUSH3 0x461BCD PUSH1 0xE5 SHL DUP3 MSTORE PUSH1 0x4 DUP3 ADD MSTORE PUSH1 0x10 PUSH1 0x24 DUP3 ADD MSTORE PUSH16 0x496E76616C6964207472656173757279 PUSH1 0x80 SHL PUSH1 0x44 DUP3 ADD MSTORE REVERT JUMPDEST DUP6 MLOAD PUSH4 0x1E4FBDF7 PUSH1 0xE0 SHL DUP2 MSTORE PUSH0 PUSH1 0x4 DUP3 ADD MSTORE PUSH1 0x24 SWAP1 REVERT JUMPDEST ADD MLOAD SWAP1 POP PUSH0 DUP1 PUSH3 0x15F JUMP JUMPDEST DUP9 SWAP5 SWAP3 SWAP2 SWAP3 AND SWAP2 DUP5 PUSH0 MSTORE DUP7 PUSH0 KECCAK256 SWAP3 PUSH0 JUMPDEST DUP9 DUP3 DUP3 LT PUSH3 0x2C0 JUMPI POP POP DUP5 GT PUSH3 0x2A7 JUMPI JUMPDEST POP POP POP DUP2 SHL ADD DUP5 SSTORE PUSH3 0x172 JUMP JUMPDEST ADD MLOAD PUSH0 NOT PUSH1 0xF8 DUP5 PUSH1 0x3 SHL AND SHR NOT AND SWAP1 SSTORE PUSH0 DUP1 DUP1 PUSH3 0x299 JUMP JUMPDEST DUP4 DUP6 ADD MLOAD DUP7 SSTORE DUP12 SWAP8 SWAP1 SWAP6 ADD SWAP5 SWAP4 DUP5 ADD SWAP4 ADD PUSH3 0x286 JUMP JUMPDEST SWAP1 SWAP2 SWAP3 SWAP4 POP DUP9 PUSH0 MSTORE DUP7 PUSH0 KECCAK256 DUP5 DUP1 DUP8 ADD PUSH1 0x5 SHR DUP3 ADD SWAP3 DUP10 DUP9 LT PUSH3 0x324 JUMPI JUMPDEST SWAP2 DUP8 SWAP7 DUP13 SWAP3 SWAP7 SWAP6 SWAP5 SWAP4 ADD PUSH1 0x5 SHR ADD SWAP2 JUMPDEST DUP3 DUP2 LT PUSH3 0x315 JUMPI POP POP PUSH3 0x149 JUMP JUMPDEST PUSH0 DUP2 SSTORE DUP8 SWAP7 POP DUP12 SWAP2 ADD PUSH3 0x305 JUMP JUMPDEST SWAP3 POP DUP2 SWAP3 PUSH3 0x2F5 JUMP JUMPDEST PUSH4 0x4E487B71 PUSH1 0xE0 SHL PUSH0 MSTORE PUSH1 0x22 PUSH1 0x4 MSTORE PUSH1 0x24 PUSH0 REVERT JUMPDEST SWAP4 PUSH1 0x7F AND SWAP4 PUSH3 0x135 JUMP JUMPDEST PUSH4 0x4E487B71 PUSH1 0xE0 SHL PUSH0 MSTORE PUSH1 0x41 PUSH1 0x4 MSTORE PUSH1 0x24 PUSH0 REVERT JUMPDEST ADD MLOAD SWAP1 POP PUSH0 DUP1 PUSH3 0x107 JUMP JUMPDEST SWAP1 DUP7 DUP13 SWAP5 AND SWAP2 PUSH0 DUP1 MSTORE DUP11 PUSH0 KECCAK256 SWAP3 PUSH0 JUMPDEST DUP13 DUP3 DUP3 LT PUSH3 0x3B6 JUMPI POP POP DUP5 GT PUSH3 0x39D JUMPI JUMPDEST POP POP POP DUP2 SHL ADD PUSH0 SSTORE PUSH3 0x11A JUMP JUMPDEST ADD MLOAD PUSH0 NOT PUSH1 0xF8 DUP5 PUSH1 0x3 SHL AND SHR NOT AND SWAP1 SSTORE PUSH0 DUP1 DUP1 PUSH3 0x38F JUMP JUMPDEST DUP4 DUP6 ADD MLOAD DUP7 SSTORE DUP16 SWAP8 SWAP1 SWAP6 ADD SWAP5 SWAP4 DUP5 ADD SWAP4 ADD PUSH3 0x37C JUMP JUMPDEST SWAP1 SWAP2 POP PUSH0 DUP1 MSTORE DUP9 PUSH0 KECCAK256 DUP6 DUP1 DUP6 ADD PUSH1 0x5 SHR DUP3 ADD SWAP3 DUP12 DUP7 LT PUSH3 0x416 JUMPI JUMPDEST SWAP2 DUP14 SWAP2 DUP7 SWAP6 SWAP5 SWAP4 ADD PUSH1 0x5 SHR ADD SWAP2 JUMPDEST DUP3 DUP2 LT PUSH3 0x407 JUMPI POP POP PUSH3 0xF1 JUMP JUMPDEST PUSH0 DUP2 SSTORE DUP6 SWAP5 POP DUP14 SWAP2 ADD PUSH3 0x3F7 JUMP JUMPDEST SWAP3 POP DUP2 SWAP3 PUSH3 0x3E9 JUMP JUMPDEST SWAP2 PUSH1 0x7F AND SWAP2 PUSH3 0xDD JUMP JUMPDEST PUSH0 DUP1 REVERT JUMPDEST PUSH1 0x40 DUP1 MLOAD SWAP2 SWAP1 DUP3 ADD PUSH1 0x1 PUSH1 0x1 PUSH1 0x40 SHL SUB DUP2 GT DUP4 DUP3 LT OR PUSH3 0x34D JUMPI PUSH1 0x40 MSTORE JUMP INVALID PUSH1 0x80 DUP1 PUSH1 0x40 MSTORE PUSH1 0x4 CALLDATASIZE LT ISZERO PUSH2 0x12 JUMPI PUSH0 DUP1 REVERT JUMPDEST PUSH0 CALLDATALOAD PUSH1 0xE0 SHR SWAP1 DUP2 PUSH4 0x1FFC9A7 EQ PUSH2 0x1B84 JUMPI POP DUP1 PUSH4 0x6FDDE03 EQ PUSH2 0x1ADD JUMPI DUP1 PUSH4 0x81812FC EQ PUSH2 0x1AA1 JUMPI DUP1 PUSH4 0x95EA7B3 EQ PUSH2 0x19C0 JUMPI DUP1 PUSH4 0x23B872DD EQ PUSH2 0x19A9 JUMPI DUP1 PUSH4 0x42842E0E EQ PUSH2 0x1982 JUMPI DUP1 PUSH4 0x47B0C3B3 EQ PUSH2 0x195A JUMPI DUP1 PUSH4 0x61D027B3 EQ PUSH2 0x1932 JUMPI DUP1 PUSH4 0x6352211E EQ PUSH2 0x1902 JUMPI DUP1 PUSH4 0x65320DA2 EQ PUSH2 0x18CA JUMPI DUP1 PUSH4 0x68016A6A EQ PUSH2 0x1035 JUMPI DUP1 PUSH4 0x70A08231 EQ PUSH2 0xFDF JUMPI DUP1 PUSH4 0x715018A6 EQ PUSH2 0xF84 JUMPI DUP1 PUSH4 0x72FA9B85 EQ PUSH2 0xEEF JUMPI DUP1 PUSH4 0x75794A3C EQ PUSH2 0xED2 JUMPI DUP1 PUSH4 0x8DA5CB5B EQ PUSH2 0xEAA JUMPI DUP1 PUSH4 0x95D89B41 EQ PUSH2 0xDE0 JUMPI DUP1 PUSH4 0x9DAF85AB EQ PUSH2 0xD40 JUMPI DUP1 PUSH4 0xA22CB465 EQ PUSH2 0xC81 JUMPI DUP1 PUSH4 0xB88D4FDE EQ PUSH2 0xC20 JUMPI DUP1 PUSH4 0xC002D23D EQ PUSH2 0xC00 JUMPI DUP1 PUSH4 0xC87B56DD EQ PUSH2 0x2EA JUMPI DUP1 PUSH4 0xE985E9C5 EQ PUSH2 0x298 JUMPI DUP1 PUSH4 0xF0F44260 EQ PUSH2 0x1F4 JUMPI DUP1 PUSH4 0xF2FDE38B EQ PUSH2 0x16D JUMPI PUSH4 0xFEB61724 EQ PUSH2 0x13A JUMPI PUSH0 DUP1 REVERT JUMPDEST CALLVALUE PUSH2 0x169 JUMPI PUSH1 0x20 CALLDATASIZE PUSH1 0x3 NOT ADD SLT PUSH2 0x169 JUMPI PUSH1 0x4 CALLDATALOAD PUSH0 MSTORE PUSH1 0xC PUSH1 0x20 MSTORE PUSH1 0x20 PUSH1 0xFF PUSH1 0x40 PUSH0 KECCAK256 SLOAD AND PUSH1 0x40 MLOAD SWAP1 ISZERO ISZERO DUP2 MSTORE RETURN JUMPDEST PUSH0 DUP1 REVERT JUMPDEST CALLVALUE PUSH2 0x169 JUMPI PUSH1 0x20 CALLDATASIZE PUSH1 0x3 NOT ADD SLT PUSH2 0x169 JUMPI PUSH2 0x186 PUSH2 0x1C35 JUMP JUMPDEST PUSH2 0x18E PUSH2 0x21C2 JUMP JUMPDEST PUSH1 0x1 PUSH1 0x1 PUSH1 0xA0 SHL SUB SWAP1 DUP2 AND SWAP1 DUP2 ISZERO PUSH2 0x1DC JUMPI PUSH1 0x6 SLOAD DUP3 PUSH1 0x1 PUSH1 0x1 PUSH1 0x60 SHL SUB PUSH1 0xA0 SHL DUP3 AND OR PUSH1 0x6 SSTORE AND PUSH32 0x8BE0079C531659141344CD1FD0A4F28419497F9722A3DAAFE3B4186F6B6457E0 PUSH0 DUP1 LOG3 STOP JUMPDEST PUSH1 0x40 MLOAD PUSH4 0x1E4FBDF7 PUSH1 0xE0 SHL DUP2 MSTORE PUSH0 PUSH1 0x4 DUP3 ADD MSTORE PUSH1 0x24 SWAP1 REVERT JUMPDEST CALLVALUE PUSH2 0x169 JUMPI PUSH1 0x20 CALLDATASIZE PUSH1 0x3 NOT ADD SLT PUSH2 0x169 JUMPI PUSH1 0x4 CALLDATALOAD PUSH1 0x1 PUSH1 0x1 PUSH1 0xA0 SHL SUB DUP2 AND SWAP1 DUP2 SWAP1 SUB PUSH2 0x169 JUMPI PUSH2 0x222 PUSH2 0x21C2 JUMP JUMPDEST DUP1 ISZERO PUSH2 0x260 JUMPI PUSH1 0x8 DUP1 SLOAD PUSH1 0x1 PUSH1 0x1 PUSH1 0xA0 SHL SUB NOT AND DUP3 OR SWAP1 SSTORE PUSH32 0x7DAE230F18360D76A040C81F050AA14EB9D6DC7901B20FC5D855E2A20FE814D1 PUSH0 DUP1 LOG2 STOP JUMPDEST PUSH1 0x40 MLOAD PUSH3 0x461BCD PUSH1 0xE5 SHL DUP2 MSTORE PUSH1 0x20 PUSH1 0x4 DUP3 ADD MSTORE PUSH1 0x10 PUSH1 0x24 DUP3 ADD MSTORE PUSH16 0x496E76616C6964207472656173757279 PUSH1 0x80 SHL PUSH1 0x44 DUP3 ADD MSTORE PUSH1 0x64 SWAP1 REVERT JUMPDEST CALLVALUE PUSH2 0x169 JUMPI PUSH1 0x40 CALLDATASIZE PUSH1 0x3 NOT ADD SLT PUSH2 0x169 JUMPI PUSH2 0x2B1 PUSH2 0x1C35 JUMP JUMPDEST PUSH2 0x2B9 PUSH2 0x1C4B JUMP JUMPDEST SWAP1 PUSH1 0x1 DUP1 PUSH1 0xA0 SHL SUB DUP1 SWAP2 AND PUSH0 MSTORE PUSH1 0x5 PUSH1 0x20 MSTORE PUSH1 0x40 PUSH0 KECCAK256 SWAP2 AND PUSH0 MSTORE PUSH1 0x20 MSTORE PUSH1 0x20 PUSH1 0xFF PUSH1 0x40 PUSH0 KECCAK256 SLOAD AND PUSH1 0x40 MLOAD SWAP1 ISZERO ISZERO DUP2 MSTORE RETURN JUMPDEST CALLVALUE PUSH2 0x169 JUMPI PUSH1 0x20 DUP1 PUSH1 0x3 NOT CALLDATASIZE ADD SLT PUSH2 0x169 JUMPI PUSH1 0x4 CALLDATALOAD SWAP1 PUSH2 0x309 DUP3 PUSH2 0x2188 JUMP JUMPDEST POP DUP2 PUSH0 MSTORE PUSH1 0xA DUP2 MSTORE PUSH1 0x40 PUSH0 KECCAK256 SWAP2 PUSH1 0x40 MLOAD SWAP3 PUSH2 0x323 DUP5 PUSH2 0x1CFB JUMP JUMPDEST DUP1 SLOAD PUSH1 0x1 PUSH1 0x1 PUSH1 0xA0 SHL SUB SWAP1 DUP2 AND DUP6 MSTORE PUSH1 0x1 DUP3 ADD SLOAD DUP5 DUP7 ADD SWAP1 DUP2 MSTORE SWAP1 SWAP5 SWAP1 SWAP2 PUSH2 0x34D PUSH1 0x2 DUP3 ADD PUSH2 0x1D52 JUMP JUMPDEST PUSH1 0x40 DUP4 ADD SWAP1 DUP2 MSTORE PUSH1 0x3 DUP3 ADD SLOAD PUSH1 0x60 DUP5 ADD MSTORE PUSH2 0x36A PUSH1 0x4 DUP4 ADD PUSH2 0x1D52 JUMP JUMPDEST SWAP2 PUSH1 0x80 DUP5 ADD SWAP3 DUP4 MSTORE PUSH1 0x5 ADD SLOAD PUSH1 0xA0 DUP5 ADD MSTORE DUP4 MLOAD SWAP7 DUP2 MLOAD SWAP8 PUSH2 0x38A SWAP1 PUSH2 0x21EE JUMP JUMPDEST PUSH1 0x40 DUP1 MLOAD PUSH32 0x3C73766720786D6C6E733D22687474703A2F2F7777772E77332E6F72672F3230 DUP11 DUP3 ADD MSTORE PUSH32 0x30302F737667222077696474683D223132303022206865696768743D22313230 SWAP2 DUP2 ADD SWAP2 SWAP1 SWAP2 MSTORE PUSH32 0x30222076696577426F783D2230203020313230302031323030223E0000000000 PUSH1 0x60 DUP3 ADD MSTORE PUSH32 0x3C726563742077696474683D223132303022206865696768743D223132303022 PUSH1 0x7B DUP3 ADD MSTORE PUSH32 0x2072783D223830222066696C6C3D2223303631313166222F3E00000000000000 PUSH1 0x9B DUP3 ADD MSTORE PUSH32 0x3C636972636C652063783D22363030222063793D223431302220723D22323230 PUSH1 0xB4 DUP3 ADD MSTORE PUSH32 0x222066696C6C3D222330303532666622206F7061636974793D22302E39222F3E PUSH1 0xD4 DUP3 ADD MSTORE PUSH32 0x3C7465787420783D223630302220793D223236302220746578742D616E63686F PUSH1 0xF4 DUP1 DUP4 ADD SWAP2 SWAP1 SWAP2 MSTORE PUSH32 0x723D226D6964646C65222066696C6C3D2277686974652220666F6E742D73697A PUSH2 0x114 DUP4 ADD DUP2 SWAP1 MSTORE PUSH32 0x653D2236342220666F6E742D66616D696C793D22417269616C2220666F6E742D PUSH2 0x134 DUP5 ADD MSTORE PUSH32 0x7765696768743D22373030223E426173652052657075746174696F6E2053636F PUSH2 0x154 DUP5 ADD MSTORE PUSH9 0x39329E17BA32BC3A1F PUSH1 0xB9 SHL PUSH2 0x174 DUP5 ADD MSTORE PUSH32 0x3C7465787420783D223630302220793D223435352220746578742D616E63686F PUSH2 0x17D DUP5 ADD MSTORE PUSH2 0x19D DUP4 ADD MSTORE PUSH32 0x653D223139302220666F6E742D66616D696C793D22417269616C2220666F6E74 PUSH2 0x1BD DUP4 ADD MSTORE PUSH14 0x16BBB2B4B3B43A1E911C9818111F PUSH1 0x91 SHL PUSH2 0x1DD DUP4 ADD MSTORE DUP3 MLOAD SWAP1 SWAP11 SWAP2 SWAP3 DUP4 SWAP3 SWAP2 PUSH2 0x1EB SWAP2 DUP13 SWAP2 SWAP1 PUSH2 0x5DA SWAP1 DUP3 SWAP1 DUP6 DUP9 ADD SWAP1 DUP6 ADD PUSH2 0x1BEF JUMP JUMPDEST DUP5 ADD PUSH7 0x1E17BA32BC3A1F PUSH1 0xC9 SHL DUP1 SWAP4 DUP3 ADD MSTORE PUSH2 0x1F2 DUP2 ADD PUSH32 0x3C7465787420783D223630302220793D223732302220746578742D616E63686F SWAP1 MSTORE PUSH2 0x212 DUP2 ADD PUSH32 0x723D226D6964646C65222066696C6C3D22233963633266662220666F6E742D73 SWAP1 MSTORE PUSH2 0x232 DUP2 ADD PUSH32 0x697A653D2237302220666F6E742D66616D696C793D22417269616C2220666F6E SWAP1 MSTORE PUSH15 0x3A16BBB2B4B3B43A1E911B9818111F PUSH1 0x89 SHL PUSH2 0x252 DUP3 ADD MSTORE PUSH2 0x261 SWAP4 DUP1 MLOAD DUP1 SWAP4 DUP7 DUP5 ADD SWAP3 ADD SWAP2 PUSH2 0x694 SWAP3 PUSH2 0x1BEF JUMP JUMPDEST ADD SWAP2 DUP3 ADD MSTORE PUSH32 0x3C7465787420783D223630302220793D223835302220746578742D616E63686F PUSH2 0x268 DUP3 ADD MSTORE PUSH32 0x723D226D6964646C65222066696C6C3D222366666666666622206F7061636974 PUSH2 0x288 DUP3 ADD MSTORE PUSH32 0x793D22302E36352220666F6E742D73697A653D2234322220666F6E742D66616D PUSH2 0x2A8 DUP3 ADD MSTORE PUSH32 0x696C793D22417269616C223E536F756C626F756E64202D204E6F6E2D7472616E PUSH2 0x2C8 DUP3 ADD MSTORE PUSH15 0x39B332B930B136329E17BA32BC3A1F PUSH1 0x89 SHL PUSH2 0x2E8 DUP3 ADD MSTORE PUSH6 0x1E17B9BB339F PUSH1 0xD1 SHL PUSH2 0x2F7 DUP3 ADD MSTORE SUB PUSH2 0x2DD DUP2 ADD DUP3 MSTORE PUSH2 0x774 SWAP1 PUSH2 0x2FD ADD DUP3 PUSH2 0x1D31 JUMP JUMPDEST PUSH2 0x77D SWAP1 PUSH2 0x2423 JUMP JUMPDEST SWAP6 PUSH2 0x787 SWAP1 PUSH2 0x21EE JUMP JUMPDEST SWAP5 MLOAD PUSH2 0x792 SWAP1 PUSH2 0x21EE JUMP JUMPDEST SWAP2 MLOAD SWAP3 MLOAD SWAP4 MLOAD AND PUSH1 0x40 MLOAD SWAP8 PUSH1 0x60 DUP10 ADD DUP10 DUP2 LT PUSH1 0x1 PUSH1 0x1 PUSH1 0x40 SHL SUB DUP3 GT OR PUSH2 0xBEC JUMPI PUSH1 0x40 MSTORE PUSH1 0x2A DUP10 MSTORE PUSH1 0x40 CALLDATASIZE DUP10 DUP12 ADD CALLDATACOPY DUP9 MLOAD ISZERO PUSH2 0xBD8 JUMPI PUSH1 0x30 DUP9 DUP11 ADD MSTORE8 DUP9 MLOAD PUSH1 0x1 LT ISZERO PUSH2 0xBD8 JUMPI PUSH1 0x78 PUSH1 0x21 DUP11 ADD MSTORE8 PUSH0 JUMPDEST PUSH1 0x14 DUP2 LT PUSH2 0xAE3 JUMPI POP DUP8 PUSH2 0xA79 DUP9 PUSH2 0xA74 PUSH2 0x161 DUP11 DUP11 DUP16 DUP12 DUP12 PUSH1 0x40 MLOAD SWAP8 DUP9 SWAP6 PUSH32 0x7B226E616D65223A22426173652052657075746174696F6E2053636F72652023 DUP13 DUP9 ADD MSTORE PUSH2 0x839 DUP13 DUP3 MLOAD SWAP3 DUP4 SWAP2 PUSH1 0x40 DUP12 ADD SWAP2 ADD PUSH2 0x1BEF JUMP JUMPDEST DUP7 ADD PUSH32 0x222C226465736372697074696F6E223A22536F756C626F756E64206F6E636861 PUSH1 0x40 DUP3 ADD MSTORE PUSH32 0x696E2072657075746174696F6E2073636F726520666F72204261736520616374 PUSH1 0x60 DUP3 ADD MSTORE PUSH32 0x69766974792E204E6F6E2D7472616E7366657261626C652E222C000000000000 PUSH1 0x80 DUP3 ADD MSTORE PUSH32 0x22696D616765223A22646174613A696D6167652F7376672B786D6C3B62617365 PUSH1 0x9A DUP3 ADD MSTORE PUSH3 0xD8D0B PUSH1 0xEA SHL PUSH1 0xBA DUP3 ADD MSTORE PUSH2 0x8F3 DUP13 DUP4 MLOAD SWAP4 DUP5 SWAP2 PUSH1 0xBD DUP6 ADD SWAP2 ADD PUSH2 0x1BEF JUMP JUMPDEST ADD PUSH2 0x88B PUSH1 0xF2 SHL PUSH1 0xBD DUP3 ADD MSTORE PUSH14 0x2261747472696275746573223A5B PUSH1 0x90 SHL PUSH1 0xBF DUP3 ADD MSTORE PUSH32 0x7B2274726169745F74797065223A2253636F7265222C2276616C7565223A0000 PUSH1 0xCD DUP3 ADD MSTORE PUSH2 0x94F DUP3 MLOAD DUP1 SWAP4 DUP14 PUSH1 0xEB DUP6 ADD SWAP2 ADD PUSH2 0x1BEF JUMP JUMPDEST ADD SWAP1 PUSH2 0x1F4B PUSH1 0xF2 SHL PUSH1 0xEB DUP4 ADD MSTORE PUSH32 0x7B2274726169745F74797065223A2243617465676F7279222C2276616C756522 PUSH1 0xED DUP4 ADD MSTORE PUSH2 0x1D11 PUSH1 0xF1 SHL PUSH2 0x10D DUP4 ADD MSTORE PUSH2 0x10F SWAP2 PUSH2 0x9A4 DUP3 MLOAD DUP1 SWAP4 DUP14 DUP7 DUP6 ADD SWAP2 ADD PUSH2 0x1BEF JUMP JUMPDEST ADD SWAP3 PUSH3 0x89F4B PUSH1 0xEA SHL DUP1 SWAP3 DUP6 ADD MSTORE PUSH32 0x7B2274726169745F74797065223A2256657273696F6E222C2276616C7565223A PUSH2 0x112 DUP6 ADD MSTORE PUSH1 0x11 PUSH1 0xF9 SHL PUSH2 0x132 DUP6 ADD MSTORE PUSH2 0x133 SWAP4 PUSH2 0x9FA DUP3 MLOAD DUP1 SWAP4 DUP14 DUP9 DUP6 ADD SWAP2 ADD PUSH2 0x1BEF JUMP JUMPDEST ADD SWAP3 DUP4 ADD MSTORE PUSH32 0x7B2274726169745F74797065223A2253636F7265642057616C6C6574222C2276 PUSH2 0x136 DUP4 ADD MSTORE PUSH7 0x30B63AB2911D11 PUSH1 0xC9 SHL PUSH2 0x156 DUP4 ADD MSTORE PUSH2 0x15D SWAP2 PUSH2 0xA4D DUP3 MLOAD DUP1 SWAP4 DUP12 DUP7 DUP6 ADD SWAP2 ADD PUSH2 0x1BEF JUMP JUMPDEST ADD SWAP1 PUSH2 0x227D PUSH1 0xF0 SHL SWAP1 DUP3 ADD MSTORE PUSH2 0x5D7D PUSH1 0xF0 SHL PUSH2 0x15F DUP3 ADD MSTORE SUB PUSH2 0x141 DUP2 ADD DUP5 MSTORE ADD DUP3 PUSH2 0x1D31 JUMP JUMPDEST PUSH2 0x2423 JUMP JUMPDEST SWAP1 PUSH2 0xACB PUSH1 0x3D PUSH1 0x40 MLOAD DUP1 SWAP5 PUSH32 0x646174613A6170706C69636174696F6E2F6A736F6E3B6261736536342C000000 DUP6 DUP4 ADD MSTORE PUSH2 0xABB DUP2 MLOAD DUP1 SWAP3 DUP8 DUP7 DUP7 ADD SWAP2 ADD PUSH2 0x1BEF JUMP JUMPDEST DUP2 ADD SUB PUSH1 0x1D DUP2 ADD DUP6 MSTORE ADD DUP4 PUSH2 0x1D31 JUMP JUMPDEST PUSH2 0xADF PUSH1 0x40 MLOAD SWAP3 DUP3 DUP5 SWAP4 DUP5 MSTORE DUP4 ADD SWAP1 PUSH2 0x1C10 JUMP JUMPDEST SUB SWAP1 RETURN JUMPDEST PUSH1 0x13 DUP2 DUP2 SUB SWAP1 DUP2 GT PUSH2 0xBB0 JUMPI PUSH1 0x3 DUP2 SWAP1 SHL SWAP1 PUSH1 0x1 PUSH1 0x1 PUSH1 0xFD SHL SUB DUP2 AND SUB PUSH2 0xBB0 JUMPI PUSH1 0xFF SWAP1 DUP2 DUP2 GT PUSH2 0xBB0 JUMPI PUSH1 0x1 DUP2 SHL ISZERO PUSH2 0xBC4 JUMPI DUP5 SWAP1 SHR SWAP1 DUP1 PUSH1 0xF0 DUP4 AND DUP2 DUP5 AND SUB GT PUSH2 0xBB0 JUMPI PUSH2 0xB3A DUP3 DUP6 SHL PUSH1 0xF PUSH1 0xF8 SHL AND PUSH2 0x2562 JUMP JUMPDEST SWAP2 PUSH1 0x1 PUSH1 0x1 PUSH1 0xFF SHL SUB DUP5 AND DUP5 SUB PUSH2 0xBB0 JUMPI DUP4 PUSH1 0x1 SHL PUSH1 0x2 ADD PUSH1 0x2 GT PUSH2 0xBB0 JUMPI PUSH2 0xB8A SWAP3 PUSH0 BYTE PUSH2 0xB70 PUSH1 0x2 PUSH1 0x1 DUP8 SWAP1 SHL ADD DUP16 PUSH2 0x2355 JUMP JUMPDEST MSTORE8 PUSH1 0xF0 DUP2 AND SWAP2 AND SUB PUSH1 0xF8 SHL PUSH1 0x1 PUSH1 0x1 PUSH1 0xF8 SHL SUB NOT AND PUSH2 0x2562 JUMP JUMPDEST SWAP1 DUP1 PUSH1 0x1 SHL PUSH1 0x3 ADD DUP1 PUSH1 0x3 GT PUSH2 0xBB0 JUMPI PUSH2 0xBA9 PUSH1 0x1 SWAP4 PUSH0 BYTE SWAP2 DUP14 PUSH2 0x2355 JUMP JUMPDEST MSTORE8 ADD PUSH2 0x7E1 JUMP JUMPDEST PUSH4 0x4E487B71 PUSH1 0xE0 SHL PUSH0 MSTORE PUSH1 0x11 PUSH1 0x4 MSTORE PUSH1 0x24 PUSH0 REVERT JUMPDEST PUSH4 0x4E487B71 PUSH1 0xE0 SHL PUSH0 MSTORE PUSH1 0x12 PUSH1 0x4 MSTORE PUSH1 0x24 PUSH0 REVERT JUMPDEST PUSH4 0x4E487B71 PUSH1 0xE0 SHL PUSH0 MSTORE PUSH1 0x32 PUSH1 0x4 MSTORE PUSH1 0x24 PUSH0 REVERT JUMPDEST PUSH4 0x4E487B71 PUSH1 0xE0 SHL PUSH0 MSTORE PUSH1 0x41 PUSH1 0x4 MSTORE PUSH1 0x24 PUSH0 REVERT JUMPDEST CALLVALUE PUSH2 0x169 JUMPI PUSH0 CALLDATASIZE PUSH1 0x3 NOT ADD SLT PUSH2 0x169 JUMPI PUSH1 0x20 PUSH1 0x40 MLOAD PUSH6 0xB5E620F48000 DUP2 MSTORE RETURN JUMPDEST CALLVALUE PUSH2 0x169 JUMPI PUSH1 0x80 CALLDATASIZE PUSH1 0x3 NOT ADD SLT PUSH2 0x169 JUMPI PUSH2 0xC39 PUSH2 0x1C35 JUMP JUMPDEST PUSH2 0xC41 PUSH2 0x1C4B JUMP JUMPDEST PUSH1 0x64 CALLDATALOAD SWAP2 PUSH1 0x1 PUSH1 0x1 PUSH1 0x40 SHL SUB DUP4 GT PUSH2 0x169 JUMPI CALLDATASIZE PUSH1 0x23 DUP5 ADD SLT ISZERO PUSH2 0x169 JUMPI PUSH2 0xC75 PUSH2 0xC7F SWAP4 CALLDATASIZE SWAP1 PUSH1 0x24 DUP2 PUSH1 0x4 ADD CALLDATALOAD SWAP2 ADD PUSH2 0x1E0F JUMP JUMPDEST SWAP2 PUSH1 0x44 CALLDATALOAD SWAP2 PUSH2 0x206A JUMP JUMPDEST STOP JUMPDEST CALLVALUE PUSH2 0x169 JUMPI PUSH1 0x40 CALLDATASIZE PUSH1 0x3 NOT ADD SLT PUSH2 0x169 JUMPI PUSH2 0xC9A PUSH2 0x1C35 JUMP JUMPDEST PUSH1 0x24 CALLDATALOAD SWAP1 DUP2 ISZERO ISZERO DUP1 SWAP3 SUB PUSH2 0x169 JUMPI CALLER ISZERO PUSH2 0xD28 JUMPI PUSH1 0x1 PUSH1 0x1 PUSH1 0xA0 SHL SUB AND SWAP1 DUP2 ISZERO PUSH2 0xD0F JUMPI CALLER PUSH0 MSTORE PUSH1 0x5 PUSH1 0x20 MSTORE PUSH1 0x40 PUSH0 KECCAK256 DUP3 PUSH0 MSTORE PUSH1 0x20 MSTORE PUSH1 0x40 PUSH0 KECCAK256 PUSH1 0xFF NOT DUP2 SLOAD AND PUSH1 0xFF DUP4 AND OR SWAP1 SSTORE PUSH1 0x40 MLOAD SWAP1 DUP2 MSTORE PUSH32 0x17307EAB39AB6107E8899845AD3D59BD9653F200F220920489CA2B5937696C31 PUSH1 0x20 CALLER SWAP3 LOG3 STOP JUMPDEST PUSH1 0x40 MLOAD PUSH4 0xB611743 PUSH1 0xE3 SHL DUP2 MSTORE PUSH1 0x4 DUP2 ADD DUP4 SWAP1 MSTORE PUSH1 0x24 SWAP1 REVERT JUMPDEST PUSH1 0x40 MLOAD PUSH4 0xA9FBF51F PUSH1 0xE0 SHL DUP2 MSTORE PUSH0 PUSH1 0x4 DUP3 ADD MSTORE PUSH1 0x24 SWAP1 REVERT JUMPDEST CALLVALUE PUSH2 0x169 JUMPI PUSH1 0x20 CALLDATASIZE PUSH1 0x3 NOT ADD SLT PUSH2 0x169 JUMPI PUSH2 0xD59 PUSH2 0x1C35 JUMP JUMPDEST PUSH2 0xD61 PUSH2 0x21C2 JUMP JUMPDEST PUSH1 0x1 PUSH1 0x1 PUSH1 0xA0 SHL SUB AND DUP1 ISZERO PUSH2 0xDA8 JUMPI PUSH1 0x7 DUP1 SLOAD PUSH1 0x1 PUSH1 0x1 PUSH1 0xA0 SHL SUB NOT AND DUP3 OR SWAP1 SSTORE PUSH32 0x2D685970DA1FE08D9D7ACE6F5A982EDE39C817EB28D1AC4935C913C4866248CA PUSH0 DUP1 LOG2 STOP JUMPDEST PUSH1 0x40 MLOAD PUSH3 0x461BCD PUSH1 0xE5 SHL DUP2 MSTORE PUSH1 0x20 PUSH1 0x4 DUP3 ADD MSTORE PUSH1 0x10 PUSH1 0x24 DUP3 ADD MSTORE PUSH16 0x24B73B30B634B21030BA3A32B9BA32B9 PUSH1 0x81 SHL PUSH1 0x44 DUP3 ADD MSTORE PUSH1 0x64 SWAP1 REVERT JUMPDEST CALLVALUE PUSH2 0x169 JUMPI PUSH0 CALLDATASIZE PUSH1 0x3 NOT ADD SLT PUSH2 0x169 JUMPI PUSH1 0x40 MLOAD PUSH0 PUSH1 0x1 DUP3 PUSH1 0x1 SLOAD SWAP3 PUSH2 0xE04 DUP5 PUSH2 0x1CC3 JUMP JUMPDEST SWAP3 DUP4 DUP4 MSTORE PUSH1 0x20 SWAP5 DUP6 PUSH1 0x1 DUP3 AND SWAP2 DUP3 PUSH0 EQ PUSH2 0xE8A JUMPI POP POP PUSH1 0x1 EQ PUSH2 0xE2F JUMPI JUMPDEST POP PUSH2 0xACB SWAP3 POP SUB DUP4 PUSH2 0x1D31 JUMP JUMPDEST DUP5 SWAP2 POP PUSH1 0x1 PUSH0 MSTORE PUSH32 0xB10E2D527612073B26EECDFD717E6A320CF44B4AFAC2B0732D9FCBE2B7FA0CF6 SWAP1 PUSH0 SWAP2 JUMPDEST DUP6 DUP4 LT PUSH2 0xE72 JUMPI POP POP PUSH2 0xACB SWAP4 POP DUP3 ADD ADD DUP6 PUSH2 0xE22 JUMP JUMPDEST DUP1 SLOAD DUP4 DUP10 ADD DUP6 ADD MSTORE DUP8 SWAP5 POP DUP7 SWAP4 SWAP1 SWAP3 ADD SWAP2 DUP2 ADD PUSH2 0xE5B JUMP JUMPDEST PUSH1 0xFF NOT AND DUP6 DUP3 ADD MSTORE PUSH2 0xACB SWAP6 ISZERO ISZERO PUSH1 0x5 SHL DUP6 ADD ADD SWAP3 POP DUP8 SWAP2 POP PUSH2 0xE22 SWAP1 POP JUMP JUMPDEST CALLVALUE PUSH2 0x169 JUMPI PUSH0 CALLDATASIZE PUSH1 0x3 NOT ADD SLT PUSH2 0x169 JUMPI PUSH1 0x6 SLOAD PUSH1 0x40 MLOAD PUSH1 0x1 PUSH1 0x1 PUSH1 0xA0 SHL SUB SWAP1 SWAP2 AND DUP2 MSTORE PUSH1 0x20 SWAP1 RETURN JUMPDEST CALLVALUE PUSH2 0x169 JUMPI PUSH0 CALLDATASIZE PUSH1 0x3 NOT ADD SLT PUSH2 0x169 JUMPI PUSH1 0x20 PUSH1 0x9 SLOAD PUSH1 0x40 MLOAD SWAP1 DUP2 MSTORE RETURN JUMPDEST CALLVALUE PUSH2 0x169 JUMPI PUSH1 0x20 CALLDATASIZE PUSH1 0x3 NOT ADD SLT PUSH2 0x169 JUMPI PUSH1 0x4 CALLDATALOAD PUSH0 MSTORE PUSH1 0xA PUSH1 0x20 MSTORE PUSH1 0x40 PUSH0 KECCAK256 PUSH1 0x1 DUP1 PUSH1 0xA0 SHL SUB DUP2 SLOAD AND PUSH1 0x1 DUP3 ADD SLOAD SWAP2 PUSH2 0xF7A PUSH2 0xF2D PUSH1 0x2 DUP4 ADD PUSH2 0x1D52 JUMP JUMPDEST SWAP2 PUSH1 0x3 DUP2 ADD SLOAD SWAP1 PUSH2 0xF67 PUSH1 0x5 PUSH2 0xF45 PUSH1 0x4 DUP5 ADD PUSH2 0x1D52 JUMP JUMPDEST SWAP3 ADD SLOAD SWAP5 PUSH1 0x40 MLOAD SWAP8 DUP9 SWAP8 DUP9 MSTORE PUSH1 0x20 DUP9 ADD MSTORE PUSH1 0xC0 PUSH1 0x40 DUP9 ADD MSTORE PUSH1 0xC0 DUP8 ADD SWAP1 PUSH2 0x1C10 JUMP JUMPDEST SWAP2 PUSH1 0x60 DUP7 ADD MSTORE DUP5 DUP3 SUB PUSH1 0x80 DUP7 ADD MSTORE PUSH2 0x1C10 JUMP JUMPDEST SWAP1 PUSH1 0xA0 DUP4 ADD MSTORE SUB SWAP1 RETURN JUMPDEST CALLVALUE PUSH2 0x169 JUMPI PUSH0 CALLDATASIZE PUSH1 0x3 NOT ADD SLT PUSH2 0x169 JUMPI PUSH2 0xF9C PUSH2 0x21C2 JUMP JUMPDEST PUSH1 0x6 DUP1 SLOAD PUSH1 0x1 PUSH1 0x1 PUSH1 0xA0 SHL SUB NOT DUP2 AND SWAP1 SWAP2 SSTORE PUSH0 SWAP1 PUSH1 0x1 PUSH1 0x1 PUSH1 0xA0 SHL SUB AND PUSH32 0x8BE0079C531659141344CD1FD0A4F28419497F9722A3DAAFE3B4186F6B6457E0 DUP3 DUP1 LOG3 STOP JUMPDEST CALLVALUE PUSH2 0x169 JUMPI PUSH1 0x20 CALLDATASIZE PUSH1 0x3 NOT ADD SLT PUSH2 0x169 JUMPI PUSH1 0x1 PUSH1 0x1 PUSH1 0xA0 SHL SUB PUSH2 0x1000 PUSH2 0x1C35 JUMP JUMPDEST AND DUP1 ISZERO PUSH2 0x101D JUMPI PUSH0 MSTORE PUSH1 0x3 PUSH1 0x20 MSTORE PUSH1 0x20 PUSH1 0x40 PUSH0 KECCAK256 SLOAD PUSH1 0x40 MLOAD SWAP1 DUP2 MSTORE RETURN JUMPDEST PUSH1 0x40 MLOAD PUSH4 0x22718AD9 PUSH1 0xE2 SHL DUP2 MSTORE PUSH0 PUSH1 0x4 DUP3 ADD MSTORE PUSH1 0x24 SWAP1 REVERT JUMPDEST PUSH2 0x100 CALLDATASIZE PUSH1 0x3 NOT ADD SLT PUSH2 0x169 JUMPI PUSH2 0x104A PUSH2 0x1C35 JUMP JUMPDEST PUSH1 0x44 CALLDATALOAD PUSH1 0x1 PUSH1 0x1 PUSH1 0x40 SHL SUB DUP2 GT PUSH2 0x169 JUMPI PUSH2 0x1069 SWAP1 CALLDATASIZE SWAP1 PUSH1 0x4 ADD PUSH2 0x1C96 JUMP JUMPDEST SWAP2 SWAP1 PUSH1 0x84 CALLDATALOAD PUSH1 0x1 PUSH1 0x1 PUSH1 0x40 SHL SUB DUP2 GT PUSH2 0x169 JUMPI PUSH2 0x108A SWAP1 CALLDATASIZE SWAP1 PUSH1 0x4 ADD PUSH2 0x1C96 JUMP JUMPDEST SWAP1 SWAP2 PUSH1 0xE4 CALLDATALOAD PUSH1 0x1 PUSH1 0x1 PUSH1 0x40 SHL SUB DUP2 GT PUSH2 0x169 JUMPI PUSH2 0x10AB SWAP1 CALLDATASIZE SWAP1 PUSH1 0x4 ADD PUSH2 0x1C96 JUMP JUMPDEST SWAP1 PUSH1 0x1 PUSH1 0x1 PUSH1 0xA0 SHL SUB DUP7 AND ISZERO PUSH2 0x188D JUMPI DUP7 ISZERO ISZERO DUP1 PUSH2 0x1882 JUMPI JUMPDEST ISZERO PUSH2 0x184A JUMPI PUSH6 0xB5E620F48000 CALLVALUE LT PUSH2 0x180E JUMPI PUSH1 0xA4 CALLDATALOAD TIMESTAMP GT PUSH2 0x17D5 JUMPI PUSH2 0x3E8 PUSH1 0x24 CALLDATALOAD GT PUSH2 0x17A0 JUMPI PUSH1 0xC4 CALLDATALOAD PUSH0 MSTORE PUSH1 0xC PUSH1 0x20 MSTORE PUSH1 0xFF PUSH1 0x40 PUSH0 KECCAK256 SLOAD AND PUSH2 0x1766 JUMPI PUSH1 0xC4 CALLDATALOAD PUSH0 MSTORE PUSH1 0xC PUSH1 0x20 MSTORE PUSH1 0x40 PUSH0 KECCAK256 PUSH1 0x1 PUSH1 0xFF NOT DUP3 SLOAD AND OR SWAP1 SSTORE PUSH2 0x1124 CALLDATASIZE DUP9 DUP6 PUSH2 0x1E0F JUMP JUMPDEST PUSH1 0x20 DUP2 MLOAD SWAP2 ADD KECCAK256 SWAP2 PUSH2 0x1137 CALLDATASIZE DUP7 DUP9 PUSH2 0x1E0F JUMP JUMPDEST PUSH1 0x20 DUP2 MLOAD SWAP2 ADD KECCAK256 PUSH1 0x40 MLOAD SWAP4 ADDRESS PUSH1 0x20 DUP7 ADD MSTORE CHAINID PUSH1 0x40 DUP7 ADD MSTORE CALLER PUSH1 0x60 DUP7 ADD MSTORE PUSH1 0x1 DUP1 PUSH1 0xA0 SHL SUB DUP10 AND PUSH1 0x80 DUP7 ADD MSTORE PUSH1 0x24 CALLDATALOAD PUSH1 0xA0 DUP7 ADD MSTORE PUSH1 0xC0 DUP6 ADD MSTORE PUSH1 0x64 CALLDATALOAD PUSH1 0xE0 DUP6 ADD MSTORE PUSH2 0x100 DUP5 ADD MSTORE PUSH1 0xA4 CALLDATALOAD PUSH2 0x120 DUP5 ADD MSTORE PUSH2 0x140 PUSH1 0xC4 CALLDATALOAD DUP2 DUP6 ADD MSTORE DUP4 MSTORE DUP3 PUSH2 0x160 DUP2 ADD LT PUSH1 0x1 PUSH1 0x1 PUSH1 0x40 SHL SUB PUSH2 0x160 DUP6 ADD GT OR PUSH2 0xBEC JUMPI PUSH2 0x11F8 PUSH2 0x11FE SWAP3 DUP5 PUSH2 0x160 PUSH2 0x1207 SWAP7 ADD PUSH1 0x40 MSTORE PUSH1 0x20 DUP2 MLOAD SWAP2 ADD KECCAK256 PUSH32 0x19457468657265756D205369676E6564204D6573736167653A0A333200000000 PUSH0 MSTORE PUSH1 0x1C MSTORE PUSH1 0x3C PUSH0 KECCAK256 SWAP3 CALLDATASIZE SWAP2 PUSH2 0x1E0F JUMP JUMPDEST SWAP1 PUSH2 0x2366 JUMP JUMPDEST SWAP1 SWAP3 SWAP2 SWAP3 PUSH2 0x23A0 JUMP JUMPDEST PUSH1 0x7 SLOAD PUSH1 0x1 PUSH1 0x1 PUSH1 0xA0 SHL SUB SWAP1 DUP2 AND SWAP2 AND SUB PUSH2 0x172D JUMPI PUSH1 0x9 SLOAD SWAP3 PUSH0 NOT DUP5 EQ PUSH2 0xBB0 JUMPI PUSH1 0x1 DUP5 ADD PUSH1 0x9 SSTORE CALLER ISZERO PUSH2 0x1715 JUMPI PUSH0 DUP5 DUP2 MSTORE PUSH1 0x2 PUSH1 0x20 MSTORE PUSH1 0x40 SWAP1 KECCAK256 SLOAD PUSH1 0x1 PUSH1 0x1 PUSH1 0xA0 SHL SUB AND ISZERO DUP1 ISZERO PUSH2 0x170E JUMPI JUMPDEST ISZERO PUSH2 0x16D7 JUMPI PUSH0 DUP5 DUP2 MSTORE PUSH1 0x2 PUSH1 0x20 MSTORE PUSH1 0x40 SWAP1 KECCAK256 SLOAD PUSH1 0x1 PUSH1 0x1 PUSH1 0xA0 SHL SUB AND DUP1 ISZERO ISZERO SWAP1 DUP6 SWAP1 DUP3 PUSH2 0x16A4 JUMPI JUMPDEST CALLER PUSH0 MSTORE PUSH1 0x3 PUSH1 0x20 MSTORE PUSH1 0x40 PUSH0 KECCAK256 PUSH1 0x1 DUP2 SLOAD ADD SWAP1 SSTORE DUP2 PUSH0 MSTORE PUSH1 0x2 PUSH1 0x20 MSTORE PUSH1 0x40 PUSH0 KECCAK256 CALLER PUSH1 0x1 PUSH1 0x1 PUSH1 0x60 SHL SUB PUSH1 0xA0 SHL DUP3 SLOAD AND OR SWAP1 SSTORE CALLER SWAP1 PUSH32 0xDDF252AD1BE2C89B69C2B068FC378DAA952BA7F163C4A11628F55A4DF523B3EF PUSH0 DUP1 LOG4 PUSH2 0x168C JUMPI PUSH1 0x40 MLOAD PUSH2 0x12E3 DUP2 PUSH2 0x1CFB JUMP JUMPDEST PUSH1 0x1 PUSH1 0x1 PUSH1 0xA0 SHL SUB DUP7 AND DUP2 MSTORE PUSH1 0x24 CALLDATALOAD PUSH1 0x20 DUP3 ADD SWAP1 DUP2 MSTORE SWAP1 PUSH2 0x1305 CALLDATASIZE DUP10 DUP7 PUSH2 0x1E0F JUMP JUMPDEST PUSH1 0x40 DUP3 ADD SWAP1 DUP2 MSTORE PUSH1 0x64 CALLDATALOAD PUSH1 0x60 DUP4 ADD MSTORE PUSH2 0x131F CALLDATASIZE DUP8 DUP7 PUSH2 0x1E0F JUMP JUMPDEST PUSH1 0x80 DUP4 ADD MSTORE TIMESTAMP PUSH1 0xA0 DUP4 ADD MSTORE PUSH0 DUP8 DUP2 MSTORE PUSH1 0xA PUSH1 0x20 MSTORE PUSH1 0x40 SWAP1 KECCAK256 DUP3 MLOAD DUP2 SLOAD PUSH1 0x1 PUSH1 0x1 PUSH1 0xA0 SHL SUB NOT AND PUSH1 0x1 PUSH1 0x1 PUSH1 0xA0 SHL SUB SWAP2 SWAP1 SWAP2 AND OR DUP2 SSTORE SWAP3 MLOAD PUSH1 0x1 DUP5 ADD SSTORE MLOAD DUP1 MLOAD SWAP1 PUSH1 0x1 PUSH1 0x1 PUSH1 0x40 SHL SUB DUP3 GT PUSH2 0xBEC JUMPI DUP2 SWAP1 PUSH2 0x137C PUSH1 0x2 DUP7 ADD SLOAD PUSH2 0x1CC3 JUMP JUMPDEST PUSH1 0x1F DUP2 GT PUSH2 0x163C JUMPI JUMPDEST POP PUSH1 0x20 SWAP1 PUSH1 0x1F DUP4 GT PUSH1 0x1 EQ PUSH2 0x15CE JUMPI PUSH0 SWAP3 PUSH2 0x15C3 JUMPI JUMPDEST POP POP DUP2 PUSH1 0x1 SHL SWAP2 PUSH0 NOT SWAP1 PUSH1 0x3 SHL SHR NOT AND OR PUSH1 0x2 DUP4 ADD SSTORE JUMPDEST PUSH1 0x60 DUP2 ADD MLOAD PUSH1 0x3 DUP4 ADD SSTORE PUSH1 0x80 DUP2 ADD MLOAD DUP1 MLOAD SWAP1 PUSH1 0x1 PUSH1 0x1 PUSH1 0x40 SHL SUB DUP3 GT PUSH2 0xBEC JUMPI PUSH2 0x13DF PUSH1 0x4 DUP6 ADD SLOAD PUSH2 0x1CC3 JUMP JUMPDEST PUSH1 0x1F DUP2 GT PUSH2 0x157F JUMPI JUMPDEST POP PUSH1 0x20 SWAP1 PUSH1 0x1F DUP4 GT PUSH1 0x1 EQ PUSH2 0x150E JUMPI SWAP2 DUP1 PUSH1 0x5 SWAP5 SWAP3 PUSH1 0xA0 SWAP5 PUSH0 SWAP3 PUSH2 0x1503 JUMPI JUMPDEST POP POP DUP2 PUSH1 0x1 SHL SWAP2 PUSH0 NOT SWAP1 PUSH1 0x3 SHL SHR NOT AND OR PUSH1 0x4 DUP6 ADD SSTORE JUMPDEST ADD MLOAD SWAP2 ADD SSTORE PUSH1 0x1 DUP1 PUSH1 0xA0 SHL SUB DUP6 AND PUSH0 MSTORE PUSH1 0xB PUSH1 0x20 MSTORE DUP4 PUSH1 0x40 PUSH0 KECCAK256 SSTORE PUSH0 DUP1 DUP1 DUP1 CALLVALUE PUSH1 0x1 DUP1 PUSH1 0xA0 SHL SUB PUSH1 0x8 SLOAD AND GAS CALL PUSH2 0x1453 PUSH2 0x201B JUMP JUMPDEST POP ISZERO PUSH2 0x14CD JUMPI PUSH32 0xEE2F5472603CC60E134A955A74778A3FC39F1D10D3C78CC2F4BEA2A0A5F8AC34 SWAP3 PUSH2 0x149C PUSH2 0x14B2 SWAP4 PUSH1 0x40 MLOAD SWAP9 PUSH1 0x24 CALLDATALOAD DUP11 MSTORE PUSH1 0xA0 PUSH1 0x20 DUP12 ADD MSTORE PUSH1 0xA0 DUP11 ADD SWAP2 PUSH2 0x204A JUMP JUMPDEST SWAP2 PUSH1 0x64 CALLDATALOAD PUSH1 0x40 DUP10 ADD MSTORE DUP8 DUP4 SUB PUSH1 0x60 DUP10 ADD MSTORE PUSH2 0x204A JUMP JUMPDEST TIMESTAMP PUSH1 0x80 DUP7 ADD MSTORE PUSH1 0x1 PUSH1 0x1 PUSH1 0xA0 SHL SUB SWAP1 SWAP4 AND SWAP4 CALLER SWAP4 DUP2 SWAP1 SUB SWAP1 LOG4 STOP JUMPDEST PUSH1 0x40 MLOAD PUSH3 0x461BCD PUSH1 0xE5 SHL DUP2 MSTORE PUSH1 0x20 PUSH1 0x4 DUP3 ADD MSTORE PUSH1 0xE PUSH1 0x24 DUP3 ADD MSTORE PUSH14 0x14185E5B595B9D0819985A5B1959 PUSH1 0x92 SHL PUSH1 0x44 DUP3 ADD MSTORE PUSH1 0x64 SWAP1 REVERT JUMPDEST ADD MLOAD SWAP1 POP DUP13 DUP1 PUSH2 0x1407 JUMP JUMPDEST SWAP1 PUSH1 0x4 DUP6 ADD PUSH0 MSTORE PUSH1 0x20 PUSH0 KECCAK256 SWAP2 PUSH0 JUMPDEST PUSH1 0x1F NOT DUP6 AND DUP2 LT PUSH2 0x1567 JUMPI POP SWAP3 PUSH1 0x5 SWAP5 SWAP3 PUSH1 0x1 SWAP3 PUSH1 0xA0 SWAP6 DUP4 PUSH1 0x1F NOT DUP2 AND LT PUSH2 0x154F JUMPI JUMPDEST POP POP POP DUP2 SHL ADD PUSH1 0x4 DUP6 ADD SSTORE PUSH2 0x141E JUMP JUMPDEST ADD MLOAD PUSH0 NOT PUSH1 0xF8 DUP5 PUSH1 0x3 SHL AND SHR NOT AND SWAP1 SSTORE DUP13 DUP1 DUP1 PUSH2 0x153F JUMP JUMPDEST SWAP2 SWAP3 PUSH1 0x20 PUSH1 0x1 DUP2 SWAP3 DUP7 DUP6 ADD MLOAD DUP2 SSTORE ADD SWAP5 ADD SWAP3 ADD PUSH2 0x151C JUMP JUMPDEST PUSH1 0x4 DUP6 ADD PUSH0 MSTORE PUSH1 0x20 PUSH0 KECCAK256 PUSH1 0x1F DUP5 ADD PUSH1 0x5 SHR DUP2 ADD PUSH1 0x20 DUP6 LT PUSH2 0x15BC JUMPI JUMPDEST PUSH1 0x1F DUP4 ADD PUSH1 0x5 SHR DUP3 ADD DUP2 LT PUSH2 0x15B1 JUMPI POP POP PUSH2 0x13E8 JUMP JUMPDEST PUSH0 DUP2 SSTORE PUSH1 0x1 ADD PUSH2 0x159B JUMP JUMPDEST POP DUP1 PUSH2 0x159B JUMP JUMPDEST ADD MLOAD SWAP1 POP DUP11 DUP1 PUSH2 0x139B JUMP JUMPDEST SWAP3 POP PUSH1 0x2 DUP6 ADD PUSH0 MSTORE PUSH1 0x20 PUSH0 KECCAK256 SWAP1 PUSH0 SWAP4 JUMPDEST PUSH1 0x1F NOT DUP5 AND DUP6 LT PUSH2 0x1621 JUMPI PUSH1 0x1 SWAP5 POP DUP4 PUSH1 0x1F NOT DUP2 AND LT PUSH2 0x1609 JUMPI JUMPDEST POP POP POP DUP2 SHL ADD PUSH1 0x2 DUP4 ADD SSTORE PUSH2 0x13B2 JUMP JUMPDEST ADD MLOAD PUSH0 NOT PUSH1 0xF8 DUP5 PUSH1 0x3 SHL AND SHR NOT AND SWAP1 SSTORE DUP11 DUP1 DUP1 PUSH2 0x15F9 JUMP JUMPDEST DUP2 DUP2 ADD MLOAD DUP4 SSTORE PUSH1 0x20 SWAP5 DUP6 ADD SWAP5 PUSH1 0x1 SWAP1 SWAP4 ADD SWAP3 SWAP1 SWAP2 ADD SWAP1 PUSH2 0x15DE JUMP JUMPDEST SWAP1 SWAP2 POP PUSH1 0x2 DUP6 ADD PUSH0 MSTORE PUSH1 0x20 PUSH0 KECCAK256 PUSH1 0x1F DUP5 ADD PUSH1 0x5 SHR DUP2 ADD PUSH1 0x20 DUP6 LT PUSH2 0x1685 JUMPI JUMPDEST SWAP1 DUP5 SWAP4 SWAP3 SWAP2 JUMPDEST PUSH1 0x1F DUP4 ADD PUSH1 0x5 SHR DUP3 ADD DUP2 LT PUSH2 0x1677 JUMPI POP POP PUSH2 0x1385 JUMP JUMPDEST PUSH0 DUP2 SSTORE DUP6 SWAP5 POP PUSH1 0x1 ADD PUSH2 0x1661 JUMP JUMPDEST POP DUP1 PUSH2 0x165B JUMP JUMPDEST PUSH1 0x40 MLOAD PUSH4 0x39E35637 PUSH1 0xE1 SHL DUP2 MSTORE PUSH0 PUSH1 0x4 DUP3 ADD MSTORE PUSH1 0x24 SWAP1 REVERT JUMPDEST PUSH0 DUP3 DUP2 MSTORE PUSH1 0x4 PUSH1 0x20 MSTORE PUSH1 0x40 SWAP1 KECCAK256 DUP1 SLOAD PUSH1 0x1 PUSH1 0x1 PUSH1 0xA0 SHL SUB NOT AND SWAP1 SSTORE DUP1 PUSH0 MSTORE PUSH1 0x3 PUSH1 0x20 MSTORE PUSH1 0x40 PUSH0 KECCAK256 PUSH0 NOT DUP2 SLOAD ADD SWAP1 SSTORE PUSH2 0x127C JUMP JUMPDEST PUSH1 0x40 MLOAD PUSH3 0x461BCD PUSH1 0xE5 SHL DUP2 MSTORE PUSH1 0x20 PUSH1 0x4 DUP3 ADD MSTORE PUSH1 0xF PUSH1 0x24 DUP3 ADD MSTORE PUSH15 0x29B7BAB63137BAB732103A37B5B2B7 PUSH1 0x89 SHL PUSH1 0x44 DUP3 ADD MSTORE PUSH1 0x64 SWAP1 REVERT JUMPDEST POP PUSH0 PUSH2 0x1254 JUMP JUMPDEST PUSH1 0x40 MLOAD PUSH4 0x32505749 PUSH1 0xE1 SHL DUP2 MSTORE PUSH0 PUSH1 0x4 DUP3 ADD MSTORE PUSH1 0x24 SWAP1 REVERT JUMPDEST PUSH1 0x40 MLOAD PUSH3 0x461BCD PUSH1 0xE5 SHL DUP2 MSTORE PUSH1 0x20 PUSH1 0x4 DUP3 ADD MSTORE PUSH1 0x11 PUSH1 0x24 DUP3 ADD MSTORE PUSH17 0x496E76616C6964207369676E6174757265 PUSH1 0x78 SHL PUSH1 0x44 DUP3 ADD MSTORE PUSH1 0x64 SWAP1 REVERT JUMPDEST PUSH1 0x40 MLOAD PUSH3 0x461BCD PUSH1 0xE5 SHL DUP2 MSTORE PUSH1 0x20 PUSH1 0x4 DUP3 ADD MSTORE PUSH1 0x12 PUSH1 0x24 DUP3 ADD MSTORE PUSH18 0x139BDB98D948185B1C9958591E481D5CD959 PUSH1 0x72 SHL PUSH1 0x44 DUP3 ADD MSTORE PUSH1 0x64 SWAP1 REVERT JUMPDEST PUSH1 0x40 MLOAD PUSH3 0x461BCD PUSH1 0xE5 SHL DUP2 MSTORE PUSH1 0x20 PUSH1 0x4 DUP3 ADD MSTORE PUSH1 0xD PUSH1 0x24 DUP3 ADD MSTORE PUSH13 0x496E76616C69642073636F7265 PUSH1 0x98 SHL PUSH1 0x44 DUP3 ADD MSTORE PUSH1 0x64 SWAP1 REVERT JUMPDEST PUSH1 0x40 MLOAD PUSH3 0x461BCD PUSH1 0xE5 SHL DUP2 MSTORE PUSH1 0x20 PUSH1 0x4 DUP3 ADD MSTORE PUSH1 0x11 PUSH1 0x24 DUP3 ADD MSTORE PUSH17 0x14DA59DB985D1D5C9948195E1C1A5C9959 PUSH1 0x7A SHL PUSH1 0x44 DUP3 ADD MSTORE PUSH1 0x64 SWAP1 REVERT JUMPDEST PUSH1 0x40 MLOAD PUSH3 0x461BCD PUSH1 0xE5 SHL DUP2 MSTORE PUSH1 0x20 PUSH1 0x4 DUP3 ADD MSTORE PUSH1 0x14 PUSH1 0x24 DUP3 ADD MSTORE PUSH20 0x125B9CDD59999A58DA595B9D081C185E5B595B9D PUSH1 0x62 SHL PUSH1 0x44 DUP3 ADD MSTORE PUSH1 0x64 SWAP1 REVERT JUMPDEST PUSH1 0x40 MLOAD PUSH3 0x461BCD PUSH1 0xE5 SHL DUP2 MSTORE PUSH1 0x20 PUSH1 0x4 DUP3 ADD MSTORE PUSH1 0x10 PUSH1 0x24 DUP3 ADD MSTORE PUSH16 0x496E76616C69642063617465676F7279 PUSH1 0x80 SHL PUSH1 0x44 DUP3 ADD MSTORE PUSH1 0x64 SWAP1 REVERT JUMPDEST POP PUSH1 0x28 DUP8 GT ISZERO PUSH2 0x10C4 JUMP JUMPDEST PUSH1 0x40 MLOAD PUSH3 0x461BCD PUSH1 0xE5 SHL DUP2 MSTORE PUSH1 0x20 PUSH1 0x4 DUP3 ADD MSTORE PUSH1 0x15 PUSH1 0x24 DUP3 ADD MSTORE PUSH21 0x125B9D985B1A59081CD8DBDC9959081DD85B1B195D PUSH1 0x5A SHL PUSH1 0x44 DUP3 ADD MSTORE PUSH1 0x64 SWAP1 REVERT JUMPDEST CALLVALUE PUSH2 0x169 JUMPI PUSH1 0x20 CALLDATASIZE PUSH1 0x3 NOT ADD SLT PUSH2 0x169 JUMPI PUSH1 0x1 PUSH1 0x1 PUSH1 0xA0 SHL SUB PUSH2 0x18EB PUSH2 0x1C35 JUMP JUMPDEST AND PUSH0 MSTORE PUSH1 0xB PUSH1 0x20 MSTORE PUSH1 0x20 PUSH1 0x40 PUSH0 KECCAK256 SLOAD PUSH1 0x40 MLOAD SWAP1 DUP2 MSTORE RETURN JUMPDEST CALLVALUE PUSH2 0x169 JUMPI PUSH1 0x20 CALLDATASIZE PUSH1 0x3 NOT ADD SLT PUSH2 0x169 JUMPI PUSH1 0x20 PUSH2 0x1920 PUSH1 0x4 CALLDATALOAD PUSH2 0x2188 JUMP JUMPDEST PUSH1 0x40 MLOAD PUSH1 0x1 PUSH1 0x1 PUSH1 0xA0 SHL SUB SWAP1 SWAP2 AND DUP2 MSTORE RETURN JUMPDEST CALLVALUE PUSH2 0x169 JUMPI PUSH0 CALLDATASIZE PUSH1 0x3 NOT ADD SLT PUSH2 0x169 JUMPI PUSH1 0x8 SLOAD PUSH1 0x40 MLOAD PUSH1 0x1 PUSH1 0x1 PUSH1 0xA0 SHL SUB SWAP1 SWAP2 AND DUP2 MSTORE PUSH1 0x20 SWAP1 RETURN JUMPDEST CALLVALUE PUSH2 0x169 JUMPI PUSH0 CALLDATASIZE PUSH1 0x3 NOT ADD SLT PUSH2 0x169 JUMPI PUSH1 0x7 SLOAD PUSH1 0x40 MLOAD PUSH1 0x1 PUSH1 0x1 PUSH1 0xA0 SHL SUB SWAP1 SWAP2 AND DUP2 MSTORE PUSH1 0x20 SWAP1 RETURN JUMPDEST CALLVALUE PUSH2 0x169 JUMPI PUSH2 0xC7F PUSH2 0x1993 CALLDATASIZE PUSH2 0x1C61 JUMP JUMPDEST SWAP1 PUSH1 0x40 MLOAD SWAP3 PUSH2 0x19A1 DUP5 PUSH2 0x1D16 JUMP JUMPDEST PUSH0 DUP5 MSTORE PUSH2 0x206A JUMP JUMPDEST CALLVALUE PUSH2 0x169 JUMPI PUSH2 0xC7F PUSH2 0x19BA CALLDATASIZE PUSH2 0x1C61 JUMP JUMPDEST SWAP2 PUSH2 0x1E45 JUMP JUMPDEST CALLVALUE PUSH2 0x169 JUMPI PUSH1 0x40 CALLDATASIZE PUSH1 0x3 NOT ADD SLT PUSH2 0x169 JUMPI PUSH2 0x19D9 PUSH2 0x1C35 JUMP JUMPDEST PUSH1 0x24 CALLDATALOAD PUSH2 0x19E5 DUP2 PUSH2 0x2188 JUMP JUMPDEST CALLER ISZERO ISZERO DUP1 PUSH2 0x1A8E JUMPI JUMPDEST DUP1 PUSH2 0x1A65 JUMPI JUMPDEST PUSH2 0x1A4D JUMPI PUSH1 0x1 PUSH1 0x1 PUSH1 0xA0 SHL SUB SWAP3 DUP4 AND SWAP3 DUP3 SWAP2 DUP5 SWAP2 AND PUSH32 0x8C5BE1E5EBEC7D5BD14F71427D1E84F3DD0314C0F7B2291E5B200AC8C7C3B925 PUSH0 DUP1 LOG4 PUSH0 SWAP1 DUP2 MSTORE PUSH1 0x4 PUSH1 0x20 MSTORE PUSH1 0x40 SWAP1 KECCAK256 DUP1 SLOAD PUSH1 0x1 PUSH1 0x1 PUSH1 0xA0 SHL SUB NOT AND SWAP1 SWAP2 OR SWAP1 SSTORE STOP JUMPDEST PUSH1 0x40 MLOAD PUSH4 0xA9FBF51F PUSH1 0xE0 SHL DUP2 MSTORE CALLER PUSH1 0x4 DUP3 ADD MSTORE PUSH1 0x24 SWAP1 REVERT JUMPDEST POP PUSH1 0x1 DUP1 PUSH1 0xA0 SHL SUB DUP2 AND PUSH0 MSTORE PUSH1 0x5 PUSH1 0x20 MSTORE PUSH1 0x40 PUSH0 KECCAK256 CALLER PUSH0 MSTORE PUSH1 0x20 MSTORE PUSH1 0xFF PUSH1 0x40 PUSH0 KECCAK256 SLOAD AND ISZERO PUSH2 0x19F4 JUMP JUMPDEST POP PUSH1 0x1 PUSH1 0x1 PUSH1 0xA0 SHL SUB DUP2 AND CALLER EQ ISZERO PUSH2 0x19EE JUMP JUMPDEST CALLVALUE PUSH2 0x169 JUMPI PUSH1 0x20 CALLDATASIZE PUSH1 0x3 NOT ADD SLT PUSH2 0x169 JUMPI PUSH1 0x4 CALLDATALOAD PUSH2 0x1ABE DUP2 PUSH2 0x2188 JUMP JUMPDEST POP PUSH0 MSTORE PUSH1 0x4 PUSH1 0x20 MSTORE PUSH1 0x20 PUSH1 0x1 DUP1 PUSH1 0xA0 SHL SUB PUSH1 0x40 PUSH0 KECCAK256 SLOAD AND PUSH1 0x40 MLOAD SWAP1 DUP2 MSTORE RETURN JUMPDEST CALLVALUE PUSH2 0x169 JUMPI PUSH0 CALLDATASIZE PUSH1 0x3 NOT ADD SLT PUSH2 0x169 JUMPI PUSH1 0x40 MLOAD PUSH0 DUP1 SLOAD SWAP1 DUP3 PUSH2 0x1AFE DUP4 PUSH2 0x1CC3 JUMP JUMPDEST SWAP2 DUP3 DUP3 MSTORE PUSH1 0x20 SWAP4 PUSH1 0x1 SWAP1 DUP6 PUSH1 0x1 DUP3 AND SWAP2 DUP3 PUSH0 EQ PUSH2 0xE8A JUMPI POP POP PUSH1 0x1 EQ PUSH2 0x1B2B JUMPI POP PUSH2 0xACB SWAP3 POP SUB DUP4 PUSH2 0x1D31 JUMP JUMPDEST PUSH0 DUP1 DUP1 MSTORE DUP6 SWAP3 POP SWAP1 PUSH32 0x290DECD9548B62A8D60345A988386FC84BA6BC95484008F6362F93160EF3E563 JUMPDEST DUP6 DUP4 LT PUSH2 0x1B6C JUMPI POP POP PUSH2 0xACB SWAP4 POP DUP3 ADD ADD DUP6 PUSH2 0xE22 JUMP JUMPDEST DUP1 SLOAD DUP4 DUP10 ADD DUP6 ADD MSTORE DUP8 SWAP5 POP DUP7 SWAP4 SWAP1 SWAP3 ADD SWAP2 DUP2 ADD PUSH2 0x1B55 JUMP JUMPDEST CALLVALUE PUSH2 0x169 JUMPI PUSH1 0x20 CALLDATASIZE PUSH1 0x3 NOT ADD SLT PUSH2 0x169 JUMPI PUSH1 0x4 CALLDATALOAD SWAP1 PUSH4 0xFFFFFFFF PUSH1 0xE0 SHL DUP3 AND DUP1 SWAP3 SUB PUSH2 0x169 JUMPI PUSH1 0x20 SWAP2 PUSH4 0x80AC58CD PUSH1 0xE0 SHL DUP2 EQ SWAP1 DUP2 ISZERO PUSH2 0x1BDE JUMPI JUMPDEST DUP2 ISZERO PUSH2 0x1BCD JUMPI JUMPDEST POP ISZERO ISZERO DUP2 MSTORE RETURN JUMPDEST PUSH4 0x1FFC9A7 PUSH1 0xE0 SHL EQ SWAP1 POP DUP4 PUSH2 0x1BC6 JUMP JUMPDEST PUSH4 0x5B5E139F PUSH1 0xE0 SHL DUP2 EQ SWAP2 POP PUSH2 0x1BBF JUMP JUMPDEST PUSH0 JUMPDEST DUP4 DUP2 LT PUSH2 0x1C00 JUMPI POP POP PUSH0 SWAP2 ADD MSTORE JUMP JUMPDEST DUP2 DUP2 ADD MLOAD DUP4 DUP3 ADD MSTORE PUSH1 0x20 ADD PUSH2 0x1BF1 JUMP JUMPDEST SWAP1 PUSH1 0x20 SWAP2 PUSH2 0x1C29 DUP2 MLOAD DUP1 SWAP3 DUP2 DUP6 MSTORE DUP6 DUP1 DUP7 ADD SWAP2 ADD PUSH2 0x1BEF JUMP JUMPDEST PUSH1 0x1F ADD PUSH1 0x1F NOT AND ADD ADD SWAP1 JUMP JUMPDEST PUSH1 0x4 CALLDATALOAD SWAP1 PUSH1 0x1 PUSH1 0x1 PUSH1 0xA0 SHL SUB DUP3 AND DUP3 SUB PUSH2 0x169 JUMPI JUMP JUMPDEST PUSH1 0x24 CALLDATALOAD SWAP1 PUSH1 0x1 PUSH1 0x1 PUSH1 0xA0 SHL SUB DUP3 AND DUP3 SUB PUSH2 0x169 JUMPI JUMP JUMPDEST PUSH1 0x60 SWAP1 PUSH1 0x3 NOT ADD SLT PUSH2 0x169 JUMPI PUSH1 0x1 PUSH1 0x1 PUSH1 0xA0 SHL SUB SWAP1 PUSH1 0x4 CALLDATALOAD DUP3 DUP2 AND DUP2 SUB PUSH2 0x169 JUMPI SWAP2 PUSH1 0x24 CALLDATALOAD SWAP1 DUP2 AND DUP2 SUB PUSH2 0x169 JUMPI SWAP1 PUSH1 0x44 CALLDATALOAD SWAP1 JUMP JUMPDEST SWAP2 DUP2 PUSH1 0x1F DUP5 ADD SLT ISZERO PUSH2 0x169 JUMPI DUP3 CALLDATALOAD SWAP2 PUSH1 0x1 PUSH1 0x1 PUSH1 0x40 SHL SUB DUP4 GT PUSH2 0x169 JUMPI PUSH1 0x20 DUP4 DUP2 DUP7 ADD SWAP6 ADD ADD GT PUSH2 0x169 JUMPI JUMP JUMPDEST SWAP1 PUSH1 0x1 DUP3 DUP2 SHR SWAP3 AND DUP1 ISZERO PUSH2 0x1CF1 JUMPI JUMPDEST PUSH1 0x20 DUP4 LT EQ PUSH2 0x1CDD JUMPI JUMP JUMPDEST PUSH4 0x4E487B71 PUSH1 0xE0 SHL PUSH0 MSTORE PUSH1 0x22 PUSH1 0x4 MSTORE PUSH1 0x24 PUSH0 REVERT JUMPDEST SWAP2 PUSH1 0x7F AND SWAP2 PUSH2 0x1CD2 JUMP JUMPDEST PUSH1 0xC0 DUP2 ADD SWAP1 DUP2 LT PUSH1 0x1 PUSH1 0x1 PUSH1 0x40 SHL SUB DUP3 GT OR PUSH2 0xBEC JUMPI PUSH1 0x40 MSTORE JUMP JUMPDEST PUSH1 0x20 DUP2 ADD SWAP1 DUP2 LT PUSH1 0x1 PUSH1 0x1 PUSH1 0x40 SHL SUB DUP3 GT OR PUSH2 0xBEC JUMPI PUSH1 0x40 MSTORE JUMP JUMPDEST SWAP1 PUSH1 0x1F DUP1 NOT SWAP2 ADD AND DUP2 ADD SWAP1 DUP2 LT PUSH1 0x1 PUSH1 0x1 PUSH1 0x40 SHL SUB DUP3 GT OR PUSH2 0xBEC JUMPI PUSH1 0x40 MSTORE JUMP JUMPDEST SWAP1 PUSH1 0x40 MLOAD SWAP2 DUP3 PUSH0 DUP3 SLOAD PUSH2 0x1D64 DUP2 PUSH2 0x1CC3 JUMP JUMPDEST SWAP1 DUP2 DUP5 MSTORE PUSH1 0x20 SWAP5 PUSH1 0x1 SWAP2 PUSH1 0x1 DUP2 AND SWAP1 DUP2 PUSH0 EQ PUSH2 0x1DD2 JUMPI POP PUSH1 0x1 EQ PUSH2 0x1D94 JUMPI JUMPDEST POP POP POP PUSH2 0x1D92 SWAP3 POP SUB DUP4 PUSH2 0x1D31 JUMP JUMPDEST JUMP JUMPDEST PUSH0 SWAP1 DUP2 MSTORE DUP6 DUP2 KECCAK256 SWAP6 SWAP4 POP SWAP2 SWAP1 JUMPDEST DUP2 DUP4 LT PUSH2 0x1DBA JUMPI POP POP PUSH2 0x1D92 SWAP4 POP DUP3 ADD ADD PUSH0 DUP1 DUP1 PUSH2 0x1D83 JUMP JUMPDEST DUP6 SLOAD DUP9 DUP5 ADD DUP6 ADD MSTORE SWAP5 DUP6 ADD SWAP5 DUP8 SWAP5 POP SWAP2 DUP4 ADD SWAP2 PUSH2 0x1DA1 JUMP JUMPDEST SWAP3 POP POP POP PUSH2 0x1D92 SWAP5 SWAP3 POP PUSH1 0xFF NOT AND DUP3 DUP5 ADD MSTORE ISZERO ISZERO PUSH1 0x5 SHL DUP3 ADD ADD PUSH0 DUP1 DUP1 PUSH2 0x1D83 JUMP JUMPDEST PUSH1 0x1 PUSH1 0x1 PUSH1 0x40 SHL SUB DUP2 GT PUSH2 0xBEC JUMPI PUSH1 0x1F ADD PUSH1 0x1F NOT AND PUSH1 0x20 ADD SWAP1 JUMP JUMPDEST SWAP3 SWAP2 SWAP3 PUSH2 0x1E1B DUP3 PUSH2 0x1DF4 JUMP JUMPDEST SWAP2 PUSH2 0x1E29 PUSH1 0x40 MLOAD SWAP4 DUP5 PUSH2 0x1D31 JUMP JUMPDEST DUP3 SWAP5 DUP2 DUP5 MSTORE DUP2 DUP4 ADD GT PUSH2 0x169 JUMPI DUP3 DUP2 PUSH1 0x20 SWAP4 DUP5 PUSH0 SWAP7 ADD CALLDATACOPY ADD ADD MSTORE JUMP JUMPDEST PUSH1 0x1 PUSH1 0x1 PUSH1 0xA0 SHL SUB SWAP2 DUP3 AND SWAP3 SWAP1 SWAP2 DUP4 ISZERO PUSH2 0x1715 JUMPI DUP2 PUSH0 MSTORE PUSH1 0x20 SWAP3 PUSH1 0x2 DUP5 MSTORE PUSH1 0x40 SWAP5 DUP3 DUP7 PUSH0 KECCAK256 SLOAD AND ISZERO DUP1 ISZERO PUSH2 0x2014 JUMPI JUMPDEST ISZERO PUSH2 0x1FDE JUMPI DUP4 SWAP1 DUP2 PUSH0 MSTORE PUSH1 0x2 DUP7 MSTORE DUP4 DUP8 PUSH0 KECCAK256 SLOAD AND SWAP6 CALLER ISZERO ISZERO DUP1 PUSH2 0x1F4C JUMPI JUMPDEST POP PUSH1 0x2 SWAP1 DUP8 PUSH2 0x1F1B JUMPI JUMPDEST DUP3 PUSH0 MSTORE PUSH1 0x3 DUP2 MSTORE DUP9 PUSH0 KECCAK256 PUSH1 0x1 DUP2 SLOAD ADD SWAP1 SSTORE DUP4 PUSH0 MSTORE MSTORE DUP7 PUSH0 KECCAK256 DUP2 PUSH1 0x1 PUSH1 0x1 PUSH1 0x60 SHL SUB PUSH1 0xA0 SHL DUP3 SLOAD AND OR SWAP1 SSTORE DUP6 PUSH32 0xDDF252AD1BE2C89B69C2B068FC378DAA952BA7F163C4A11628F55A4DF523B3EF PUSH0 DUP1 LOG4 AND SWAP3 DUP4 DUP4 SUB PUSH2 0x1EFA JUMPI POP POP POP POP JUMP JUMPDEST PUSH1 0x64 SWAP5 POP MLOAD SWAP3 PUSH4 0x64283D7B PUSH1 0xE0 SHL DUP5 MSTORE PUSH1 0x4 DUP5 ADD MSTORE PUSH1 0x24 DUP4 ADD MSTORE PUSH1 0x44 DUP3 ADD MSTORE REVERT JUMPDEST PUSH0 DUP5 DUP2 MSTORE PUSH1 0x4 PUSH1 0x20 MSTORE PUSH1 0x40 DUP2 KECCAK256 DUP1 SLOAD PUSH1 0x1 PUSH1 0x1 PUSH1 0xA0 SHL SUB NOT AND SWAP1 SSTORE DUP9 DUP2 MSTORE PUSH1 0x3 DUP3 MSTORE DUP10 SWAP1 KECCAK256 DUP1 SLOAD PUSH0 NOT ADD SWAP1 SSTORE PUSH2 0x1E9C JUMP JUMPDEST SWAP2 SWAP3 POP SWAP1 DUP1 PUSH2 0x1F9D JUMPI JUMPDEST ISZERO PUSH2 0x1F64 JUMPI SWAP1 DUP5 SWAP2 PUSH0 PUSH2 0x1E92 JUMP JUMPDEST DUP7 DUP6 DUP8 PUSH2 0x1F81 JUMPI PUSH1 0x24 SWAP2 MLOAD SWAP1 PUSH4 0x7E273289 PUSH1 0xE0 SHL DUP3 MSTORE PUSH1 0x4 DUP3 ADD MSTORE REVERT JUMPDEST PUSH1 0x44 SWAP2 MLOAD SWAP1 PUSH4 0x177E802F PUSH1 0xE0 SHL DUP3 MSTORE CALLER PUSH1 0x4 DUP4 ADD MSTORE PUSH1 0x24 DUP3 ADD MSTORE REVERT JUMPDEST POP CALLER DUP7 EQ DUP1 ISZERO PUSH2 0x1FC2 JUMPI JUMPDEST DUP1 PUSH2 0x1F56 JUMPI POP DUP5 PUSH0 MSTORE PUSH1 0x4 DUP2 MSTORE CALLER DUP5 DUP9 PUSH0 KECCAK256 SLOAD AND EQ PUSH2 0x1F56 JUMP JUMPDEST POP DUP6 PUSH0 MSTORE PUSH1 0x5 DUP2 MSTORE DUP7 PUSH0 KECCAK256 CALLER PUSH0 MSTORE DUP2 MSTORE PUSH1 0xFF DUP8 PUSH0 KECCAK256 SLOAD AND PUSH2 0x1FA8 JUMP JUMPDEST DUP6 MLOAD PUSH3 0x461BCD PUSH1 0xE5 SHL DUP2 MSTORE PUSH1 0x4 DUP2 ADD DUP7 SWAP1 MSTORE PUSH1 0xF PUSH1 0x24 DUP3 ADD MSTORE PUSH15 0x29B7BAB63137BAB732103A37B5B2B7 PUSH1 0x89 SHL PUSH1 0x44 DUP3 ADD MSTORE PUSH1 0x64 SWAP1 REVERT JUMPDEST POP PUSH0 PUSH2 0x1E74 JUMP JUMPDEST RETURNDATASIZE ISZERO PUSH2 0x2045 JUMPI RETURNDATASIZE SWAP1 PUSH2 0x202C DUP3 PUSH2 0x1DF4 JUMP JUMPDEST SWAP2 PUSH2 0x203A PUSH1 0x40 MLOAD SWAP4 DUP5 PUSH2 0x1D31 JUMP JUMPDEST DUP3 MSTORE RETURNDATASIZE PUSH0 PUSH1 0x20 DUP5 ADD RETURNDATACOPY JUMP JUMPDEST PUSH1 0x60 SWAP1 JUMP JUMPDEST SWAP1 DUP1 PUSH1 0x20 SWAP4 SWAP3 DUP2 DUP5 MSTORE DUP5 DUP5 ADD CALLDATACOPY PUSH0 DUP3 DUP3 ADD DUP5 ADD MSTORE PUSH1 0x1F ADD PUSH1 0x1F NOT AND ADD ADD SWAP1 JUMP JUMPDEST SWAP2 SWAP3 SWAP1 SWAP3 PUSH2 0x2079 DUP2 DUP6 DUP6 PUSH2 0x1E45 JUMP JUMPDEST DUP4 EXTCODESIZE PUSH2 0x2086 JUMPI JUMPDEST POP POP POP POP JUMP JUMPDEST PUSH1 0x20 SWAP1 PUSH1 0x1 DUP1 PUSH1 0xA0 SHL SUB DUP1 SWAP6 AND SWAP5 PUSH2 0x20CD PUSH1 0x40 MLOAD SWAP5 DUP6 SWAP4 DUP5 SWAP4 PUSH4 0xA85BD01 PUSH1 0xE1 SHL SWAP9 DUP10 DUP7 MSTORE CALLER PUSH1 0x4 DUP8 ADD MSTORE AND PUSH1 0x24 DUP6 ADD MSTORE PUSH1 0x44 DUP5 ADD MSTORE PUSH1 0x80 PUSH1 0x64 DUP5 ADD MSTORE PUSH1 0x84 DUP4 ADD SWAP1 PUSH2 0x1C10 JUMP JUMPDEST SUB DUP2 PUSH0 DUP8 GAS CALL PUSH0 SWAP2 DUP2 PUSH2 0x2143 JUMPI JUMPDEST POP PUSH2 0x2112 JUMPI DUP3 PUSH2 0x20E9 PUSH2 0x201B JUMP JUMPDEST DUP1 MLOAD SWAP2 SWAP1 DUP3 PUSH2 0x210B JUMPI PUSH1 0x40 MLOAD PUSH4 0x32505749 PUSH1 0xE1 SHL DUP2 MSTORE PUSH1 0x4 DUP2 ADD DUP4 SWAP1 MSTORE PUSH1 0x24 SWAP1 REVERT JUMPDEST PUSH1 0x20 SWAP2 POP ADD REVERT JUMPDEST PUSH1 0x1 PUSH1 0x1 PUSH1 0xE0 SHL SUB NOT AND SUB PUSH2 0x212B JUMPI POP PUSH0 DUP1 DUP1 DUP1 PUSH2 0x2080 JUMP JUMPDEST PUSH1 0x24 SWAP1 PUSH1 0x40 MLOAD SWAP1 PUSH4 0x32505749 PUSH1 0xE1 SHL DUP3 MSTORE PUSH1 0x4 DUP3 ADD MSTORE REVERT JUMPDEST SWAP1 SWAP2 POP PUSH1 0x20 DUP2 RETURNDATASIZE PUSH1 0x20 GT PUSH2 0x2180 JUMPI JUMPDEST DUP2 PUSH2 0x215F PUSH1 0x20 SWAP4 DUP4 PUSH2 0x1D31 JUMP JUMPDEST DUP2 ADD SUB SLT PUSH2 0x169 JUMPI MLOAD PUSH1 0x1 PUSH1 0x1 PUSH1 0xE0 SHL SUB NOT DUP2 AND DUP2 SUB PUSH2 0x169 JUMPI SWAP1 PUSH0 PUSH2 0x20DB JUMP JUMPDEST RETURNDATASIZE SWAP2 POP PUSH2 0x2152 JUMP JUMPDEST PUSH0 DUP2 DUP2 MSTORE PUSH1 0x2 PUSH1 0x20 MSTORE PUSH1 0x40 SWAP1 KECCAK256 SLOAD PUSH1 0x1 PUSH1 0x1 PUSH1 0xA0 SHL SUB AND SWAP1 DUP2 ISZERO PUSH2 0x21AA JUMPI POP SWAP1 JUMP JUMPDEST PUSH1 0x24 SWAP1 PUSH1 0x40 MLOAD SWAP1 PUSH4 0x7E273289 PUSH1 0xE0 SHL DUP3 MSTORE PUSH1 0x4 DUP3 ADD MSTORE REVERT JUMPDEST PUSH1 0x6 SLOAD PUSH1 0x1 PUSH1 0x1 PUSH1 0xA0 SHL SUB AND CALLER SUB PUSH2 0x21D6 JUMPI JUMP JUMPDEST PUSH1 0x40 MLOAD PUSH4 0x118CDAA7 PUSH1 0xE0 SHL DUP2 MSTORE CALLER PUSH1 0x4 DUP3 ADD MSTORE PUSH1 0x24 SWAP1 REVERT JUMPDEST DUP1 PUSH0 SWAP2 PUSH27 0x184F03E93FF9F4DAA797ED6E38ED64BF6A1F010000000000000000 DUP1 DUP3 LT ISZERO PUSH2 0x2347 JUMPI JUMPDEST POP PUSH14 0x4EE2D6D415B85ACEF8100000000 DUP1 DUP4 LT ISZERO PUSH2 0x2338 JUMPI JUMPDEST POP PUSH7 0x2386F26FC10000 DUP1 DUP4 LT ISZERO PUSH2 0x2329 JUMPI JUMPDEST POP PUSH4 0x5F5E100 DUP1 DUP4 LT ISZERO PUSH2 0x231A JUMPI JUMPDEST POP PUSH2 0x2710 DUP1 DUP4 LT ISZERO PUSH2 0x230B JUMPI JUMPDEST POP PUSH1 0x64 DUP3 LT ISZERO PUSH2 0x22FB JUMPI JUMPDEST PUSH1 0xA DUP1 SWAP3 LT ISZERO PUSH2 0x22F1 JUMPI JUMPDEST PUSH1 0x1 SWAP1 DUP2 PUSH1 0x21 PUSH1 0x1 DUP7 ADD SWAP6 PUSH2 0x2287 DUP8 PUSH2 0x1DF4 JUMP JUMPDEST SWAP7 PUSH2 0x2295 PUSH1 0x40 MLOAD SWAP9 DUP10 PUSH2 0x1D31 JUMP JUMPDEST DUP1 DUP9 MSTORE PUSH2 0x22A4 PUSH1 0x1F NOT SWAP2 PUSH2 0x1DF4 JUMP JUMPDEST ADD CALLDATASIZE PUSH1 0x20 DUP10 ADD CALLDATACOPY DUP7 ADD ADD SWAP1 JUMPDEST PUSH2 0x22BC JUMPI JUMPDEST POP POP POP POP SWAP1 JUMP JUMPDEST PUSH0 NOT ADD SWAP1 DUP4 SWAP1 PUSH16 0x181899199A1A9B1B9C1CB0B131B232B3 PUSH1 0x81 SHL DUP3 DUP3 MOD BYTE DUP4 MSTORE8 DIV SWAP2 DUP3 ISZERO PUSH2 0x22EC JUMPI SWAP2 SWAP1 DUP3 PUSH2 0x22B0 JUMP JUMPDEST PUSH2 0x22B5 JUMP JUMPDEST SWAP2 PUSH1 0x1 ADD SWAP2 PUSH2 0x2273 JUMP JUMPDEST SWAP2 SWAP1 PUSH1 0x64 PUSH1 0x2 SWAP2 DIV SWAP2 ADD SWAP2 PUSH2 0x2268 JUMP JUMPDEST PUSH1 0x4 SWAP2 SWAP4 SWAP3 DIV SWAP2 ADD SWAP2 PUSH0 PUSH2 0x225D JUMP JUMPDEST PUSH1 0x8 SWAP2 SWAP4 SWAP3 DIV SWAP2 ADD SWAP2 PUSH0 PUSH2 0x2250 JUMP JUMPDEST PUSH1 0x10 SWAP2 SWAP4 SWAP3 DIV SWAP2 ADD SWAP2 PUSH0 PUSH2 0x2241 JUMP JUMPDEST PUSH1 0x20 SWAP2 SWAP4 SWAP3 DIV SWAP2 ADD SWAP2 PUSH0 PUSH2 0x222F JUMP JUMPDEST PUSH1 0x40 SWAP4 POP DUP2 DIV SWAP2 POP PUSH0 PUSH2 0x2216 JUMP JUMPDEST SWAP1 DUP2 MLOAD DUP2 LT ISZERO PUSH2 0xBD8 JUMPI ADD PUSH1 0x20 ADD SWAP1 JUMP JUMPDEST DUP2 MLOAD SWAP2 SWAP1 PUSH1 0x41 DUP4 SUB PUSH2 0x2396 JUMPI PUSH2 0x238F SWAP3 POP PUSH1 0x20 DUP3 ADD MLOAD SWAP1 PUSH1 0x60 PUSH1 0x40 DUP5 ADD MLOAD SWAP4 ADD MLOAD PUSH0 BYTE SWAP1 PUSH2 0x25A3 JUMP JUMPDEST SWAP2 SWAP3 SWAP1 SWAP2 SWAP1 JUMP JUMPDEST POP POP PUSH0 SWAP2 PUSH1 0x2 SWAP2 SWAP1 JUMP JUMPDEST PUSH1 0x4 DUP2 LT ISZERO PUSH2 0x240F JUMPI DUP1 PUSH2 0x23B2 JUMPI POP POP JUMP JUMPDEST PUSH1 0x1 DUP2 SUB PUSH2 0x23CC JUMPI PUSH1 0x40 MLOAD PUSH4 0xF645EEDF PUSH1 0xE0 SHL DUP2 MSTORE PUSH1 0x4 SWAP1 REVERT JUMPDEST PUSH1 0x2 DUP2 SUB PUSH2 0x23ED JUMPI PUSH1 0x40 MLOAD PUSH4 0xFCE698F7 PUSH1 0xE0 SHL DUP2 MSTORE PUSH1 0x4 DUP2 ADD DUP4 SWAP1 MSTORE PUSH1 0x24 SWAP1 REVERT JUMPDEST PUSH1 0x3 EQ PUSH2 0x23F7 JUMPI POP JUMP JUMPDEST PUSH1 0x24 SWAP1 PUSH1 0x40 MLOAD SWAP1 PUSH4 0x35E2F383 PUSH1 0xE2 SHL DUP3 MSTORE PUSH1 0x4 DUP3 ADD MSTORE REVERT JUMPDEST PUSH4 0x4E487B71 PUSH1 0xE0 SHL PUSH0 MSTORE PUSH1 0x21 PUSH1 0x4 MSTORE PUSH1 0x24 PUSH0 REVERT JUMPDEST DUP1 MLOAD ISZERO PUSH2 0x254F JUMPI DUP1 MLOAD SWAP2 PUSH1 0x2 DUP1 DUP5 ADD DUP1 SWAP5 GT PUSH2 0xBB0 JUMPI PUSH1 0x3 SWAP4 DUP5 SWAP1 DIV PUSH1 0x2 DUP2 SWAP1 SHL SWAP2 SWAP1 PUSH1 0x1 PUSH1 0x1 PUSH1 0xFE SHL SUB DUP2 AND SUB PUSH2 0xBB0 JUMPI SWAP4 PUSH1 0x40 MLOAD SWAP4 PUSH32 0x4142434445464748494A4B4C4D4E4F505152535455565758595A616263646566 PUSH1 0x1F MSTORE PUSH1 0x3F SWAP2 PUSH32 0x6768696A6B6C6D6E6F707172737475767778797A303132333435363738392B2F PUSH1 0x3F MSTORE PUSH1 0x20 DUP7 ADD SWAP3 DUP3 SWAP2 DUP4 MLOAD DUP5 ADD SWAP2 PUSH1 0x20 DUP4 ADD SWAP10 DUP11 MLOAD SWAP5 PUSH0 DUP13 MSTORE JUMPDEST DUP5 DUP2 LT PUSH2 0x2513 JUMPI POP POP POP POP POP SWAP1 PUSH1 0x3 SWAP2 PUSH1 0x20 SWAP6 SWAP7 SWAP8 MSTORE MLOAD MOD DUP1 PUSH1 0x1 EQ PUSH2 0x24FE JUMPI PUSH1 0x2 EQ PUSH2 0x24F1 JUMPI JUMPDEST POP DUP1 DUP5 MSTORE DUP4 ADD ADD PUSH1 0x40 MSTORE JUMP JUMPDEST PUSH1 0x3D SWAP1 PUSH0 NOT ADD MSTORE8 PUSH0 PUSH2 0x24E5 JUMP JUMPDEST POP PUSH1 0x3D SWAP1 DUP2 PUSH0 NOT DUP3 ADD MSTORE8 PUSH1 0x1 NOT ADD MSTORE8 PUSH0 PUSH2 0x24E5 JUMP JUMPDEST DUP4 PUSH1 0x4 SWAP2 SWAP13 SWAP6 SWAP9 SWAP13 ADD SWAP12 DUP4 DUP14 MLOAD DUP2 DUP2 PUSH1 0x12 SHR AND MLOAD DUP4 MSTORE8 DUP2 DUP2 PUSH1 0xC SHR AND MLOAD PUSH1 0x1 DUP5 ADD MSTORE8 DUP2 DUP2 PUSH1 0x6 SHR AND MLOAD DUP6 DUP5 ADD MSTORE8 AND MLOAD DUP6 DUP3 ADD MSTORE8 ADD SWAP7 SWAP4 SWAP11 PUSH2 0x24BD JUMP JUMPDEST POP PUSH1 0x40 MLOAD PUSH2 0x255C DUP2 PUSH2 0x1D16 JUMP JUMPDEST PUSH0 DUP2 MSTORE SWAP1 JUMP JUMPDEST PUSH1 0xF8 SHR PUSH1 0xA DUP2 LT PUSH2 0x2588 JUMPI PUSH1 0x57 ADD PUSH1 0xFF DUP2 GT PUSH2 0xBB0 JUMPI PUSH1 0xF8 SHL PUSH1 0x1 PUSH1 0x1 PUSH1 0xF8 SHL SUB NOT AND SWAP1 JUMP JUMPDEST PUSH1 0x30 ADD PUSH1 0xFF DUP2 GT PUSH2 0xBB0 JUMPI PUSH1 0xF8 SHL PUSH1 0x1 PUSH1 0x1 PUSH1 0xF8 SHL SUB NOT AND SWAP1 JUMP JUMPDEST SWAP2 SWAP1 PUSH32 0x7FFFFFFFFFFFFFFFFFFFFFFFFFFFFFFF5D576E7357A4501DDFE92F46681B20A0 DUP5 GT PUSH2 0x2625 JUMPI SWAP2 PUSH1 0x20 SWAP4 PUSH1 0x80 SWAP3 PUSH1 0xFF PUSH0 SWAP6 PUSH1 0x40 MLOAD SWAP5 DUP6 MSTORE AND DUP7 DUP5 ADD MSTORE PUSH1 0x40 DUP4 ADD MSTORE PUSH1 0x60 DUP3 ADD MSTORE DUP3 DUP1 MSTORE PUSH1 0x1 GAS STATICCALL ISZERO PUSH2 0x261A JUMPI PUSH0 MLOAD PUSH1 0x1 PUSH1 0x1 PUSH1 0xA0 SHL SUB DUP2 AND ISZERO PUSH2 0x2610 JUMPI SWAP1 PUSH0 SWAP1 PUSH0 SWAP1 JUMP JUMPDEST POP PUSH0 SWAP1 PUSH1 0x1 SWAP1 PUSH0 SWAP1 JUMP JUMPDEST PUSH1 0x40 MLOAD RETURNDATASIZE PUSH0 DUP3 RETURNDATACOPY RETURNDATASIZE SWAP1 REVERT JUMPDEST POP POP POP PUSH0 SWAP2 PUSH1 0x3 SWAP2 SWAP1 JUMP INVALID LOG2 PUSH5 0x6970667358 0x22 SLT KECCAK256 CALLDATALOAD DUP12 DELEGATECALL CALLVALUE ISZERO 0x4C 0xED MCOPY 0x4F SWAP9 SELFBALANCE CALLER 0xEB MSTORE8 BLOCKHASH 0xDB SWAP16 0xDA PUSH16 0x67BED5049BA3F217416D8F12D164736F PUSH13 0x63430008180033000000000000 "},"methodIdentifiers":{"MINT_PRICE()":"c002d23d","approve(address,uint256)":"095ea7b3","attester()":"47b0c3b3","balanceOf(address)":"70a08231","getApproved(uint256)":"081812fc","isApprovedForAll(address,address)":"e985e9c5","latestTokenByWallet(address)":"65320da2","mintReputationScore(address,uint256,string,bytes32,string,uint256,bytes32,bytes)":"68016a6a","name()":"06fdde03","nextTokenId()":"75794a3c","owner()":"8da5cb5b","ownerOf(uint256)":"6352211e","renounceOwnership()":"715018a6","reputations(uint256)":"72fa9b85","safeTransferFrom(address,address,uint256)":"42842e0e","safeTransferFrom(address,address,uint256,bytes)":"b88d4fde","setApprovalForAll(address,bool)":"a22cb465","setAttester(address)":"9daf85ab","setTreasury(address)":"f0f44260","supportsInterface(bytes4)":"01ffc9a7","symbol()":"95d89b41","tokenURI(uint256)":"c87b56dd","transferFrom(address,address,uint256)":"23b872dd","transferOwnership(address)":"f2fde38b","treasury()":"61d027b3","usedNonces(bytes32)":"feb61724"}}}}}